:100000000C94F1010C9419020C9419020C9419022D
:100010000C9419020C9419020C9419020C941902F4
:100020000C9419020C948B0A0C94C41C0C94901B15
:100030000C9419020C9419020C9419020C941902D4
:100040000C9419020C94B7050C9419020C94190223
:100050000C9419020C9419020C9419020C94FF13BD
:100060000C9419020C9460180C9492180C941902B8
:100070000C9419020C9419020C9419020C94190294
:100080000C9419020C9419020C9419020C94190284
:100090000C945E090C9419020C9419020C94190228
:1000A0000C9419020C9419020C94190257155C1542
:1000B00061156B157515BF15BF15BF157F15891512
:1000C00093159D15AA15BF15B215E015E315D215A8
:1000D000D615DC15041604160416E715EB15EF15F6
:1000E000F515F9150416FF15084AD73B3BCE016EEE
:1000F00084BCBFFDC12F3D6C74319ABD56833DDA7F
:100100003D00C77F11BED9E4BB4C3E916BAAAABE8D
:10011000000000803F08000000BE922449123EAB60
:10012000AAAA2ABECDCCCC4C3E00000080BEABAA11
:10013000AAAA3E00000000BF000000803F000000AF
:100140000000084178D3BB4387D1133D190E3CC34F
:10015000BD4282AD2B3E68EC8276BED98FE1A93ECE
:100160004C80EFFFBE01C4FF7F3F0000000000078E
:10017000634236B79BD8A71A39685618AEBAAB5542
:100180008C1D3CB7CC5763BD6DEDFD753EF6177207
:1001900031BF000000803F003F065B4F666D7D076A
:1001A0007F6F777C395E7971BF86DBCFE6EDFD87A7
:1001B000FFEFF7FCB9DEF9F1004007060504010086
:1001C000080A0B0C0D090000000200090F000003D3
:1001D0000401000C0000000000000000000000000E
:1001E0000000000004080201104080401020408000
:1001F000408008020401804020100201108010207D
:10020000404004040404040304050202020204033F
:1002100002020202060606060606040402020204A0
:10022000000000002300260029002C002F00000001
:100230000000250028002B002E00310000000000E7
:10024000240027002A002D003000080B00020202C3
:100250000100090400000102020000052400100151
:1002600005240101010424020605240600010705F6
:10027000810310004009040100020A000000070584
:1002800002024000000705830240000000C1808197
:10029000C11201000202000040032A368000010161
:1002A0000200011201000200000040032A36800013
:1002B000010102000141726475696E6F2053726C16
:1002C0000041726475696E6F204C656F6E61726477
:1002D0006F000403090400000000000000002A2B46
:1002E00028000000000000000000000000000000E6
:1002F0000000000000002C9EB4A0A1A2A434A6A778
:10030000A5AE362D3738271E1F202122232425266F
:10031000B333B62EB7B89F8485868788898A8B8C3D
:100320008D8E8F909192939495969798999A9B9C85
:100330009D2F3130A3AD350405060708090A0B0CC3
:100340000D0E0F101112131415161718191A1B1C65
:100350001DAFB1B0B500090402000103000000099F
:100360002101010001226500070584034000010509
:10037000010902A1010901A100850105091901294D
:10038000031500250195037501810295017505810D
:100390000305010930093109381581257F75089554
:1003A000038106C0C005010906A1018502050719E0
:1003B000E029E71500250175019508810295017571
:1003C000088103950675081500256505071900299C
:1003D000658100C089037C081A126017C2183A1F91
:1003E000A30311241FBECFEFDAE0DEBFCDBF11E0C3
:1003F000A0E0B1E0E2EAFDE402C005900D92AC3A63
:10040000B107D9F724E0ACEAB1E001C01D92A33CEA
:10041000B207E1F713E0C0EED3E004C02297FE017B
:100420000E944124C43DD107C9F70E9406190C94CB
:10043000C4260C94000022E330E040E050E064EF7A
:1004400071E081E792E00C940B0B81E792E00C9451
:100450006E0B61E08DE00E94051661E08DE00E9468
:100460003E166CE271E080E090E00E94781460E05B
:100470008DE00E943E1640E052EC61E070E086EBB9
:1004800093E00E945A1764EF71E080E090E00E94D0
:1004900078140E941B0262E370E080E090E00E940A
:1004A00078140E9425028EE292E00E94C41185E732
:1004B00092E00E94B0136DE371E086EB93E00E943E
:1004C00065196EE172E086EB93E00C948219FC01F1
:1004D000E754FE4F8081809324028181809325021E
:1004E0008091240290912502089586EB93E00C946C
:1004F0006E19A6E2B2E0FC01E754FE4F80818C93B6
:100500008181809327028281809328028381809356
:1005100029026D917D918D919C9108950F931F9368
:10052000CF93DF93CDB7DEB72D970FB6F894DEBF2C
:100530000FBECDBF1091BF018E31910509F482C06D
:1005400064F58930910509F46DC00CF5833091058F
:1005500009F4BFC0089709F0D1C0612FCE01019600
:100560000E94EC120091C3012091C2014091C1018F
:100570006091C001CE0101960E943213CE01019616
:100580000E948413CE0101960E949813B7C08A304E
:100590009105C9F00B9731F1B1C08233910509F48F
:1005A00085C044F48032910509F456C0829709F45D
:1005B00061C0A4C08536910509F48BC086369105CB
:1005C00009F487C09BC0612FCE0101960E94780B71
:1005D00087E090E00E946702BC01CE0101960E9474
:1005E0008A0B8CC08AE292E00E944712811779F050
:1005F000612F8AE292E00E94AB128AE292E00E94AE
:10060000BB12682F70E08AE792E00E940D076091AC
:10061000C001653B08F072C070E08AE792E00E947A
:1006200046076CC0612FCE0101960E94860D87E0BF
:1006300090E00E947902AB01BC01CE0101960E94BC
:10064000A10D5CC061E0812F0E9405166091C00180
:10065000812F0E943E1652C061E0812F0E94051634
:100660002091C001622F772767FD7095812F0E942E
:10067000311544C086E090E00E9467028C0188E05A
:1006800090E00E946702101611065CF49C0144275A
:1006900037FD4095542FB80181E792E00E940B0B83
:1006A0002DC081E792E00E946E0B28C00E94491481
:1006B0000E94AB2020E030E04AE754E40E94122080
:1006C0006093B0017093B1018093B2019093B30134
:1006D00015C08AE292E00E944712811729F0612F2B
:1006E0008AE292E00E94AB1261E08091C001811128
:1006F00001C060E08AE292E00E946D122D960FB672
:10070000F894DEBF0FBECDBFDF91CF911F910F9147
:1007100008958AE792E00E94730685E792E00E94BE
:10072000A41381E792E00E94050B8EE292E00E9402
:10073000100E8AE292E00E941F1267E471E08EE1DF
:1007400092E00C94ED1D8EE192E00C947F1D682FD9
:1007500086EB93E00C949D168FEF0E94A70385E52E
:100760000C94A7038FEF0E94A70385E50E94A703BF
:100770000C947502CF93C82F81E00E94A7038C2FA1
:10078000CF910C94A703FF920F931F93CF93DF9306
:100790001F92CDB7DEB78B01F82E82E099830E94BD
:1007A000A703A8016F2D9981792F409326025093BA
:1007B00027026093280270932902802F0E94A703CA
:1007C000809127020E94A703809128020E94A7031C
:1007D000809129020F90DF91CF911F910F91FF908F
:1007E0000C94A703CF92DF92EF92FF921F93CF93C7
:1007F000DF93CDB7DEB72B970FB6F894DEBF0FBEF1
:10080000CDBF6091BF01E62EFF24E7FCF094853157
:10081000910509F4A1C0DCF48630910509F46AC0A1
:1008200054F48330910591F18430910579F1029768
:1008300009F0F4C04CC08F30910509F4D3C0813168
:10084000910509F46FC0079709F0E8C01FC08E3109
:10085000910509F481C054F488319105B9F08931CA
:100860009105A1F0469709F0D9C076C08233910571
:1008700009F44DC01CF44F9749F0D0C0873691055C
:1008800029F08836910509F481C0C8C08AE292E057
:100890006B870E94471290E06B858E159F0559F07B
:1008A0008AE292E00E94AB128AE292E00E94BE12BB
:1008B00060E00E9405168AE292E00E948D12BC015F
:1008C000882777FD8095982F0E94AD2028C085E766
:1008D00092E06B870E94471290E06B858E159F0512
:1008E00021F085E792E00E94AE1385E792E00E9436
:1008F000E91315C06091C0018EE292E06B870E94FF
:10090000710E6B858EE292E00E94A21008C0609189
:10091000AC017091AD018091AE019091AF010E9448
:10092000C3037CC08AE292E06B870E94471290E08A
:100930006B858E159F0529F18AE292E00E94AB1229
:100940008AE292E00E94BB1260E00E9405168AE2F1
:1009500092E00E94BE1212C08AE292E06B870E946F
:10096000471290E06B858E159F0559F08AE292E060
:100970000E94AB128AE292E00E94BB1260E00E94E9
:1009800005168AE292E00E945B1246C01091C001F7
:10099000CE0101960E94860DCE0101960E948E0C1A
:1009A000682F70E080E090E00E94AB206B017C013A
:1009B000612F70E080E090E00E94AD209B01AC01CF
:1009C000C701B6010E940E20811105C060E070E0F1
:1009D00080E89FE303C060E070E0CB010E947A20D2
:1009E000862F1AC08AE292E06B870E94471290E03D
:1009F0006B858E159F0559F08AE292E00E94AB123A
:100A00008AE292E00E94BE1260E00E94051660E059
:100A10008AE292E00E944A120E94BA032B960FB615
:100A2000F894DEBF0FBECDBFDF91CF911F91FF9035
:100A3000EF90DF90CF9008951F93CF93DF931F9295
:100A4000CDB7DEB71092B6018091BC011091BE0106
:100A50009091BD019230C1F090F4913011F58983ED
:100A60000E94AC0389810E94A703812F90E00E941D
:100A7000F2030F90DF91CF911F910C947502943087
:100A800041F0953041F00DC0812F90E00E948E0220
:100A900002C00E9425020F90DF91CF911F910C940C
:100AA000B2030F90DF91CF911F91089510921D0214
:100AB00086EB93E00E94C716181619064CF481E0E5
:100AC00080931D0286EB93E00E94D7168093B501B8
:100AD00008950E94560580911D02882309F446C09E
:100AE0008091B5019091B601853561F491110AC0EC
:100AF0008091B4018F3FE1F481E08093B80180934D
:100B0000B60116C08093B401992391F0E091B80129
:100B1000E23019F48093B70107C0E33028F09091D8
:100B2000B70191509093B701F0E0E754FE4F8083F6
:100B30008091B8018F5F843318F48093B80104C0AA
:100B40001092B8011092B6018091B601882371F01D
:100B50008091B70181110AC08091B801843030F0D2
:100B60001092B6010E941C051092B80108951F92C0
:100B70000F920FB60F9211242F933F934F935F93D1
:100B80006F937F938F939F93AF93BF93EF93FF9355
:100B900080917E0287FF05C010928500109284002C
:100BA0001AC020917E02332727FD309580917D0267
:100BB00090E0281739077CF480917E02992787FD01
:100BC0009095FC01EE0FFF1FE80FF91FE158FD4F54
:100BD000808186FD15C080917E028F5F80937E02AA
:100BE00020917E02332727FD309580917D0290E091
:100BF00028173907BCF480917E028C305CF112C05A
:100C000080917E02992787FD9095FC01EE0FFF1FD2
:100C1000E80FF91FE158FD4F808160E08F730E945B
:100C20003E16D9CF8091840090918500049680343F
:100C30009C4918F480E49CE905C08091840090915F
:100C40008500049690938900809388008FEF8093AD
:100C50007E0238C0209184003091850080917E0210
:100C6000992787FD9095FC01EE0FFF1FE80FF91FF4
:100C7000E158FD4F81819281820F931F90938900EB
:100C80008093880080917E02992787FD9095FC01D2
:100C9000EE0FFF1FE80FF91FE158FD4F808186FF1F
:100CA00011C080917E02992787FD9095FC01EE0F7F
:100CB000FF1FE80FF91FE158FD4F808161E08F733E
:100CC0000E943E16FF91EF91BF91AF919F918F913E
:100CD0007F916F915F914F913F912F910F900FBE38
:100CE0000F901F90189520917D022C30A0F431E0D8
:100CF000320F30937D02FC012083822F90E0FC01B3
:100D0000EE0FFF1FE80FF91FE158FD4F88EB9BE046
:100D10009283818308952FEFFC0120830895DF9251
:100D2000EF92FF920F931F93CF93DF93EC01D62E98
:100D30007A01890188818C3008F066C061E08D2DD0
:100D40000E9405168881A82FB0E0FD01EE0FFF1F5D
:100D5000EA0FFB1FE158FD4F2D2D2F739081907CE2
:100D6000922B908360E272E06E197F0977FF02C0D8
:100D70006D5F7F4F7595679575956795698340E6BB
:100D800059E0401B510B57FF02C04D5F5F4F559517
:100D90004795559547954A836CE00E94CA239CE08D
:100DA000899FB001112420E030E0A901460F571FB0
:100DB000FA01EE0FFF1FE40FF51FE158FD4F908180
:100DC00096FD16C02F5F3F4F2C30310571F7811112
:100DD0000FC01092800082E0809381001092850005
:100DE00010928400B19A80916F00826080936F00AE
:100DF000888190E0FC01EE0FFF1FE80FF91FE1581A
:100E0000FD4F8081806480838881DF91CF911F9125
:100E10000F91FF90EF90DF90089520E639E040E2D7
:100E200052E00C948F06FC0180818C3070F591812A
:100E300028E830E0291B310997FD3395220F331F35
:100E4000220F331F621773077CF0928128E532E08E
:100E5000291B310997FD3395220F331F220F331FB2
:100E6000621773070CF49B0122503109220F331FC4
:100E70004FB7F89490E0FC01EE0FFF1FE80FF91F49
:100E8000E158FD4F328321834FBF08954F925F9207
:100E90006F927F92AF92BF92CF92DF92EF92FF92CA
:100EA0000F931F93CF93DF93EC01603282E07807BA
:100EB0000CF040C077FD06C0653B71052CF064EB7B
:100EC00070E002C060E070E0898128E830E0281B13
:100ED000310987FD3395220F331F220F331F59012C
:100EE000CC24B7FCC094DC2C882777FD8095982F04
:100EF0002A8148E552E0421B510927FD5395440FD2
:100F0000551F440F551F2A01662457FC6094762C08
:100F10007F926F925F924F9214EBE12EF12C00E0E2
:100F200010E020E030E0A9010E94381D0F900F90E2
:100F30000F900F90CE01DF91CF911F910F91FF90F5
:100F4000EF90DF90CF90BF90AF907F906F905F90C9
:100F50004F900C9413078091D30290E02091D4021B
:100F6000821B910908952091D4028091D302281701
:100F700050F4E22FF0E0EB52FD4F808190E02F5FC4
:100F80002093D40208958FEF9FEF0895E091D4024B
:100F90008091D302E81730F4F0E0EB52FD4F8081EE
:100FA00090E008958FEF9FEF08950895CF92DF921C
:100FB000EF92FF920F931F93CF93DF937C01CB01AE
:100FC0008A012091AF02222389F0EB016B01C40E4C
:100FD000D51ECC15DD0569F06991D701ED91FC9125
:100FE0000190F081E02DC7010995F3CF642F0E9495
:100FF0003509C801DF91CF911F910F91FF90EF90BC
:10100000DF90CF900895CF93DF931F92CDB7DEB7D7
:1010100069832091AF022223D1F02091B0022032C7
:1010200040F021E030E0FC013383228380E090E057
:1010300015C08091B102E82FF0E0EE54FD4F998188
:1010400090838F5F8093B1028093B00205C061E00E
:10105000CE0101960E94350981E090E00F90DF916A
:10106000CF910895FC011382128248EE53E060E0B4
:1010700070E0448355836683778385E591E09183AF
:10108000808308951092D4021092D3021092B1027C
:101090001092B0020C948008862F413208F040E292
:1010A00065ED72E00E949E081092D4028093D302F4
:1010B000089521E00C944C0881E08093AF02609386
:1010C000D2021092B1021092B00208950F93062F2F
:1010D00021E04091B00262EB72E08091D2020E9466
:1010E000E2081092B1021092B0021092AF020F917A
:1010F000089561E00C94660883EA92E00C9432084B
:101100001092620381E08093600310925F0361E0BC
:1011100082E00E943E1661E083E00E943E16E9EB09
:10112000F0E080818E7F808380818D7F808380E26C
:101130008093B80085E48093BC000895413208F0A4
:101140003FC0909162039111FCCF91E090936203B4
:10115000209360032FEF2093F50210923A03240F9F
:10116000209339039093610390916103880F892B39
:101170008093610380915F03813041F410925F039B
:10118000809161038093BB0085EC01C085EE809364
:10119000BC00809162038130E1F380913A038417AF
:1011A00010F440913A032BE333E0FB01D9018A2F7D
:1011B000821B841718F48D918193F9CF842F0895A1
:1011C00080E008950F93413208F046C09091620389
:1011D0009111FCCF92E090936203009360039FEF24
:1011E0009093F50210923A0340933903FB016BE3AD
:1011F00073E0DB019A2F961B941718F491919D933D
:10120000F9CF1092610390916103880F892B80932D
:10121000610380915F03813041F410925F038091FC
:1012200061038093BB0085EC01C085EE8093BC0018
:10123000222321F0809162038230E1F38091F50254
:101240008F3F61F08091F502803251F08091F5027C
:10125000803341F483E007C081E005C080E003C033
:1012600082E001C084E00F910895613298F42091EA
:101270006203243089F460931703FC0189E193E051
:10128000DC012A2F281B261718F421912D93F9CF62
:1012900080E0089581E0089582E0089585ED8093CF
:1012A000BC008091BC0084FDFCCF109262030895C5
:1012B00085EC8093BC001092620308951F920F92F8
:1012C0000FB60F9211242F933F934F935F936F9319
:1012D0007F938F939F93AF93BF93EF93FF938091EF
:1012E000B900887F803609F49CC068F5883209F41B
:1012F0005BC090F4803109F454C038F4882309F4B9
:10130000F5C0883009F44DC0F5C0883109F44CC0EF
:10131000803209F45DC0EEC0803409F468C048F43E
:10132000803309F455C0883309F0E4C08093F50296
:10133000A8C0803509F44FC0883509F45DC08834F1
:1013400009F0D8C0D5C0883909F4C6C0A8F48837D8
:1013500009F467C038F4883609F463C0803709F4AB
:1013600060C0C8C0883809F4B7C0803909F45FC0CC
:10137000803809F0BFC05BC0803B09F485C038F4F9
:10138000803A09F466C0883A09F47EC0B3C0803C54
:1013900009F4A6C0883C09F4A3C0883B09F489C0BD
:1013A000A9C08091610310C090913A0380913903E4
:1013B000981770F5E0913A0381E08E0F80933A031D
:1013C000F0E0E55CFC4F80818093BB0085EC85C03C
:1013D0008093F5028DC0E0913A0381E08E0F8093F7
:1013E0003A038091BB00F0E0E55CFC4F8083909174
:1013F0003A03809139036DC0E0913A0381E08E0F8A
:1014000080933A038091BB00F0E0E55CFC4F808361
:101410008091600381116CC081E080935F0384EA56
:1014200060C083E0809362031092F602CFCF809178
:10143000F602803208F050C0E091F60281E08E0F93
:101440008093F6028091BB00F0E0E950FD4F80836D
:10145000BDCF8091F602803230F4E091F602F0E0E8
:10146000E950FD4F10820E944E096091F60270E033
:10147000E0915B03F0915C0387EF92E00995109295
:10148000F6020E94580936C084E0809362031092ED
:10149000180310921703E0915D03F0915E03099524
:1014A00080911703811105C081E08093170310928A
:1014B0001903E091180381E08E0F80931803F0E088
:1014C000E75EFC4F80818093BB0090911803809170
:1014D0001703981708F47ACF85E88093BC000AC0F8
:1014E00085EC8093BC001092620304C01092F50258
:1014F0000E944E09FF91EF91BF91AF919F918F9103
:101500007F916F915F914F913F912F910F900FBEFF
:101510000F901F9018951F920F920FB60F921124E3
:101520002F933F934F935F936F937F938F939F93EB
:10153000AF93BF93EF93FF93E091A503F091A603C0
:10154000309709F451C0868DA685B785958581FFB2
:1015500004C08C91892329F447C08C91892309F018
:1015600043C0A389B4899C918589809589238C93F4
:10157000868997890197F1F7208D318DA685B785EA
:10158000758558E040E0C9010197F1F7842F90E09C
:1015900095958795482F6C91672309F040685150C5
:1015A00091F7868D81FD40958091640390E00196CE
:1015B0008F73992720916303281749F0A091640342
:1015C000B0E0AB59BC4F4C938093640303C0868D4D
:1015D0008160868F828D938D0197F1F7A389B489FD
:1015E0008C919589892B8C93FF91EF91BF91AF914D
:1015F0009F918F917F916F915F914F913F912F912B
:101600000F900FBE0F901F9018950E941F128CE034
:101610008093A70308954F925F926F927F928F926B
:101620009F92AF92BF92CF92DF92EF92FF920F9371
:101630001F93CF93DF9369017A019B0140E050E053
:1016400060E472E48FE090E00E942024E9018901C7
:1016500037FF02C00F5F1F4F1595079561E080911E
:10166000A7030E940516A8EEB3E0A70196010E9409
:1016700045244B015C01C12CD12C76012E0166243E
:1016800057FC6094762CC814D904EA04FB04A8F42F
:1016900061E08091A7030E943E16C8010E94A01439
:1016A00060E08091A7030E943E16C8010E94A0142A
:1016B000C40CD51CE61CF71CE6CFDF91CF911F911F
:1016C0000F91FF90EF90DF90CF90BF90AF909F90E1
:1016D0008F907F906F905F904F90089561E0809120
:1016E000A7030E94051660E08091A7030C943E16A4
:1016F0000E94281291E0909380008BE080938100FB
:10170000909390008093910087E08093C1001092A5
:10171000C30008950F931F93CF93DF938C016F3F06
:10172000710519F014F06FEF70E0EB0161308FEF8D
:10173000780714F4C1E0DFEFF801868197818C17F8
:101740009D07C9F0D783C683D7FD06C061E0C801F5
:101750000E947D12BE0108C060E0C8010E947D1297
:10176000662777276C1B7D0BC801DF91CF911F91F6
:101770000F910C949912DF91CF911F910F910895C1
:101780000F931F93CF93DF93EC01062F18E060E0D7
:101790008F810E943E1607FF02C061E001C060E039
:1017A00088850E943E16000F61E08F810E943E16E0
:1017B000115069F760E08F810E943E1661E08F81D1
:1017C0000E943E1660E08F81DF91CF911F910F91B3
:1017D0000C943E160F931F93CF93DF93EC0161E0BF
:1017E00088850E943E1660E088850E94051608E004
:1017F00010E061E08F810E943E16110F88850E94E3
:101800007416892B09F01F5F60E08F810E943E16DD
:10181000015079F760E08F810E943E1661E08F8170
:101820000E943E1660E08F810E943E1661E088852E
:101830000E940516812FDF91CF911F910F9108957E
:10184000CF93DF93EC0161E08F810E943E1661E04F
:1018500088850E943E1660E088850E943E1660E002
:101860008F81DF91CF910C943E16CF93DF93EC01E3
:1018700060E08F810E943E1660E088850E943E16DF
:1018800061E08F810E943E1661E08885DF91CF91F3
:101890000C943E16CF92DF92EF92FF920F931F931C
:1018A000CF93DF931F92CDB7DEB76C01F62E79830D
:1018B0000E94200C68E4C6010E94C00B61E0C601D2
:1018C0000E94C00BC6010E94350C0F2D7981172F85
:1018D000E12CF12CC6010E94200CB701660F771F86
:1018E0006866C6010E94C00BF80161918F01C601B4
:1018F0000E94C00BC6010E94350CFFEFEF1AFF0AD1
:1019000083E0E816F10431F70F90DF91CF911F913A
:101910000F91FF90EF90DF90CF9008951F93CF939A
:10192000DF93EC010E94200C69E4CE010E94C00B01
:10193000CE010E94EA0B182FCE010E94350C812F98
:10194000DF91CF911F9108954F925F926F927F9296
:101950008F929F92AF92BF92CF92DF92EF92FF92BF
:101960000F931F93CF93DF9300D000D0CDB7DEB796
:101970006A017B01890137FD48C0B9016F5F7F4F64
:10198000882777FD8095982F0E94AD209B01AC01A0
:1019900060E070E080E291E40E9488224B015C01EB
:1019A0009B01AC01C701B6010E9412200E94E820F1
:1019B0002B013C01B801882777FD8095982F0E9464
:1019C000AD209B01AC0160E070E080E291E40E94F8
:1019D000882269837A838B839C83A5019401C30148
:1019E000B2010E9425229B01AC01C701B6010E94F1
:1019F000471F29813A814B815C810E9412200E94FD
:101A0000E8200E947A20CB011FC088249924821AE2
:101A1000930AA12CB12C20E030E040E251E4C70150
:101A2000B6010E9425226B017C018FEFA81AB80A2B
:101A3000A814B90484F3C701B6010E947A20CB012F
:101A40006AE070E00E94EA230F900F900F900F90D1
:101A5000DF91CF911F910F91FF90EF90DF90CF908A
:101A6000BF90AF909F908F907F906F905F904F90BE
:101A70000895DB0180E090E22C91223208F09C93E3
:101A8000EC91F0E0E856FE4FE491ED938F5F8330E8
:101A900099F708950F931F93CF93DF9300D000D051
:101AA000CDB7DEB78C01FB018081898381818A8378
:101AB00082818B83BE016F5F7F4FC8010E94390D09
:101AC000BE016F5F7F4FC8010E944A0C0F900F90BC
:101AD0000F900F90DF91CF911F910F910895CF93A9
:101AE000DF9300D000D0CDB7DEB720E229832A8370
:101AF0002B832C83BE016F5F7F4F0E944A0D0F9096
:101B00000F900F900F90DF91CF910895CF93DF93B7
:101B1000EC010E9428128881888789818F8361E087
:101B20000E94051661E088850E94051688E48C8372
:101B300088E68D8381E08E83CE01DF91CF910C9476
:101B40006F0D8F929F92AF92BF92CF92DF92EF92E2
:101B5000FF920F931F93CF93DF9300D01F92CDB7C7
:101B6000DEB75C016A017B0119821A821B8220E0C8
:101B700030E0A901C701B6010E940E2087FF09C00D
:101B8000F7FAF094F7F8F09481E28983992493941A
:101B900001C0912C02E010E0812C9801B701A60150
:101BA000C5010E94A40C181619062CF0002319F088
:101BB0008820B9F00CC001110AC0E1E0F0E0EC0FA0
:101BC000FD1FE90DF11D20E1280F208307C0E1E092
:101BD000F0E0EC0FFD1FE90DF11D80839394882444
:101BE000839482E0891530F0015011090B3F8FEF8B
:101BF000180799F6BE016F5F7F4FC5010E944A0D1D
:101C00000F900F900F90DF91CF911F910F91FF9048
:101C1000EF90DF90CF90BF90AF909F908F900895FE
:101C2000CF93DF93EC0160E00E942812CE5BDF4F80
:101C300088E68883DF91CF910895EF92FF920F930A
:101C40001F93CF93DF93F62E8A01E22EEC01CE5B39
:101C5000DF4F688183EA92E00E945C086F2D83EA7F
:101C600092E00E940308813001F560E083EA92E08F
:101C70000E94660881112EC081E090E00E94A014AD
:101C800021E04E2D688183EA92E00E944C08E80131
:101C900000E010E0F12C83EA92E00E94AB07892B70
:101CA00031F00E151F0574F002C08FEF13C081E0F4
:101CB00090E00E94A01481E00E151F0509F480E059
:101CC000819508C00F5F1F4F83EA92E00E94B3071F
:101CD0008993E1CFDF91CF911F910F91FF90EF900A
:101CE00008952F923F924F925F926F927F928F92C0
:101CF0009F92AF92BF92CF92DF92EF92FF920F939B
:101D00001F93CF93DF93CDB7DEB72C970FB6F89420
:101D1000DEBF0FBECDBF1C01AC014C5C5F4F2EE09F
:101D20006BE30E941D0E8111F4C1F101A4A8B12C36
:101D30001A2D002785A9082B13A302A3E6A8F12CCE
:101D4000FE2CEE2487A9E82AF5A2E4A280AC912C0F
:101D5000982C882481AD882A97A286A24680578035
:101D60006084718464AD70E0762F662785AD682B42
:101D7000882777FD8095982F0E94AD20F10120A53E
:101D800031A542A553A50E94471FA30192010E94BD
:101D90001220F101668B778B808F918F66AD70E09A
:101DA000762F662787AD682B882777FD8095982F3B
:101DB0000E94AD20F10124A535A546A557A50E9496
:101DC000471FA30192010E941220F101628F738FBD
:101DD000848F958FE05CFF4F608170E0762F6627DF
:101DE00031968081682B882777FD8095982F0E94F7
:101DF000AD20F10120A931A942A953A90E94471F92
:101E0000A30192010E941220F101668F778F80A3B7
:101E100091A3B701882777FD8095982F0E94AD2068
:101E20006B017C01B401882777FD8095982F0E9473
:101E3000AD209B01AC010E9425224B015C01A70152
:101E40009601C701B6010E942522A50194010E94B6
:101E5000481F0E94D8229B01AC01B801882777FD5A
:101E60008095982F29873A874B875C870E94AD2001
:101E70002B013C0129853A854B855C850E94BB1F5F
:101E800020E030E044E353E40E9425222AED3FE0C5
:101E900049E450E40E94122069837A838B839C83F7
:101EA000A3019201C301B2010E942522A501940160
:101EB0000E94481F0E94D8229B01AC01C701B601B5
:101EC0000E94BB1F20E030E044E353E40E9425223F
:101ED0002AED3FE049E450E40E9412206D837E83A6
:101EE0008F8398870E944914C090A803D090A903BB
:101EF000E090AA03F090AB036C197D098E099F094D
:101F00000E94AB2020E030E04AE754E40E94122017
:101F10006B017C010E9449146093A8037093A9038C
:101F20008093AA039093AB03F10186A197A11816A1
:101F3000190644F5228D338D448D558DC701B601A8
:101F40000E9425229B01AC01F10162857385848585
:101F500095850E94471FF101628773878487958763
:101F600026893789408D518DC701B6010E942522EF
:101F70009B01AC01F10166857785808991890E947A
:101F8000481F28C0F101228D338D448D558DC70126
:101F9000B6010E9425229B01AC01F1016285738587
:101FA000848595850E94481FF10162877387848725
:101FB000958726893789408D518DC701B6010E94CA
:101FC00025229B01AC01F101668577858089918985
:101FD0000E94471FF10166877787808B918BF10103
:101FE000268D378D40A151A1C701B6010E9425223F
:101FF000F10122893389448955890E94481F2B01A8
:102000003C0120E030E044EB53E40E9412200E94A7
:10201000E82020E030E044EB53E40E9425229B01BD
:10202000AC01C301B2010E94471F2B013C0120E01B
:1020300030E044E353E40E94D521181634F0F10156
:10204000428A538A648A758A0DC020E030E044EBEE
:1020500053E4C301B2010E94471FF101628B738BED
:10206000848B958B20E030E040E05FE3C701B60150
:102070000E94481F9B01AC0160E070E080E09FE39C
:102080000E9412206B017C019B01AC0160E070E0BA
:1020900080E89FE30E94471F4B015C01F10122850C
:1020A000338544855585C701B6010E9425222B0141
:1020B0003C01A501940169817A818B819C810E94F8
:1020C00025229B01AC01C301B2010E94481FF1010E
:1020D00062877387848795872685378540895189EC
:1020E000C701B6010E9425226B017C01A501940164
:1020F0006D817E818F8198850E9425229B01AC0194
:10210000C701B6010E94481FF10166877787808B5F
:10211000918B2C960FB6F894DEBF0FBECDBFDF912A
:10212000CF911F910F91FF90EF90DF90CF90BF90D4
:10213000AF909F908F907F906F905F904F903F9067
:102140002F9008950F931F93CF93DF931F92CDB7D6
:10215000DEB78C0169830E94710E6981613031F4B0
:10216000F80132852385948585850FC0623031F46E
:10217000F801368527859089818907C0633031F45D
:10218000F8013289238994898589AC01632F722FE4
:10219000852F942F0F90DF91CF911F910F9108956C
:1021A0002F923F924F925F926F927F928F929F9267
:1021B000AF92BF92CF92DF92EF92FF920F931F9355
:1021C000CF93DF9300D000D0CDB7DEB71C0104EF72
:1021D00011E0812C912C5401412C512C3201198297
:1021E0001A821B821C827C0124E3E20EF11C26E091
:1021F000A70163E4C1010E941D0EF10184A990E0D2
:10220000982F882725A9822BAA2797FDA095BA2F5A
:1022100029813A814B815C81280F391F4A1F5B1F3E
:1022200029833A834B835C8386A990E0982F882783
:1022300027A9822BAA2797FDA095BA2F480E591ED1
:102240006A1E7B1E80AD90E0982F882721AD822BDF
:10225000AA2797FDA095BA2F880E991EAA1EBB1E0D
:102260000150110921F624EFC22EDD24D394E12C74
:10227000F12C69817A818B819C81A70196010E9452
:102280002024CA01B9010E94AD20F10160A771A705
:1022900082A793A7C301B201A70196010E9420243F
:1022A000CA01B9010E94AD20F10164A775A786A7F4
:1022B00097A7C501B401A70196010E942024CA0175
:1022C000B9010E94AD20F10160AB71AB82AB93AB61
:1022D0000F900F900F900F90DF91CF911F910F9162
:1022E000FF90EF90DF90CF90BF90AF909F908F9036
:1022F0007F906F905F904F903F902F900895EF9256
:10230000FF921F93CF93DF931F92CDB7DEB7162FA7
:102310007A018E5B9F4FFC01608183EA92E0298302
:102320000E945C08612F83EA92E00E9403082981E1
:10233000813091F4422F50E0B70183EA92E00E948D
:10234000D60761E083EA92E00F90DF91CF911F9171
:10235000FF90EF900C9466088FEF0F90DF91CF9174
:102360001F91FF90EF900895CF93DF931F92CDB709
:10237000DEB7498321E0AE014F5F5F4F0E947F11BE
:102380000F90DF91CF910895CF93DF93EC0140E060
:1023900050E063E872E44E835F83688779871A862A
:1023A0001B861C861D861E861F86188A198A1A8A15
:1023B0001B8A1C8A1D8A1E8A1F8A188E198E1A8EE5
:1023C0001B8E1C8E1D8E1E8E1F8E18A219A21BA284
:1023D0001AA21DA21CA21FA21EA218A619A61AA606
:1023E0001BA61CA61DA61EA61FA618AA19AA1AAAD5
:1023F0001BAA83EA92E00E94420860E273E080E058
:1024000090E00E94781440E06BE670E0CE010E94FC
:10241000B41141E06AE170E0CE010E94B41148E0DD
:102420006BE170E0CE010E94B411CE01DF91CF913B
:102430000C94D0108CEA93E00C941E120895FC01C9
:1024400080910A01808380910B018183128208951B
:10245000DC01E62FF0E0EE0FFF1FE65FFE4F80810C
:102460008C93818111968C93119712966C9391E0C5
:10247000909380008BE080938100909390008093F4
:10248000910087E08093C1001092C3000895FC0181
:1024900082810895CF93DF93EC0189810E94051614
:1024A00089810E94741621E0892B09F420E0822F93
:1024B000DF91CF910895CF93DF93EC0162E08881A3
:1024C0000E94051688810E94741621E0892B09F468
:1024D00020E0822FDF91CF9108951F93CF93DF9358
:1024E000EC01162F61E088810E940516612F88811A
:1024F000DF91CF911F910C943E161F93CF93DF93E2
:10250000EC01162F61E089810E940516612F8981F7
:10251000DF91CF911F910C943E16CF93DF93EC0186
:1025200060E089810E9405168981DF91CF910C942A
:1025300000150F931F93CF93DF93EC018B0161E0A4
:1025400088810E940516B8018881DF91CF911F9183
:102550000F910C943115DC01E62FF0E0EE0FFF1F18
:10256000E65FFE4F80818C93818111968C93119749
:1025700012966C930895FC0180810895FC0181817D
:102580000895CF93DF93EC01262F30E03D832C8319
:1025900023E0629FC00111240E945F249F838E83E9
:1025A000892B21F481E691E00E94602680E090E092
:1025B0004C815D819A01220F331F240F351F821732
:1025C000930738F4EE81FF81E80FF91F108201961E
:1025D000EFCFDF91CF910895CF93DF93EC010E946D
:1025E00028128881282F30E0F901EC51FE4FE49148
:1025F000EC87F901EE5FFD4FE491F0E0EE0FFF1F75
:10260000E25DFD4F259134913987288761E00E9472
:10261000051660E2CE01DF91CF910C94C1120F93A9
:10262000FC01A62FB0E084819581A817B907B8F402
:10263000862F880F860F90E0A681B781A80FB91F5B
:102640002C93A681B781A80FB91F11964C930680D1
:10265000F781E02DE80FF91F028381E001C080E0DF
:102660000F910895CF92DF92EF92FF920F931F93F5
:10267000CF93DF937C01142FD22EC02E611113C093
:10268000C0E0D0E0F70184819581C817D90748F4EC
:102690000C2D2D2D412F6C2FC7010E940F13219659
:1026A000F1CF81E004C061500E940F1380E0DF9100
:1026B000CF911F910F91FF90EF90DF90CF900895F1
:1026C0000F931F93D8013FB7F8949C91822F809568
:1026D0008923292BFB01460F571FE417F50781F0CB
:1026E000919168E02C9300C097FF8C93990F00C0E4
:1026F00000C000C008F48C9300C06A9599F7EDCF34
:102700003FBF1F910F9108950F931F93FC01008508
:10271000118524813581A901440F551F420F531F94
:102720006681778124850E9460131F910F9108951F
:10273000CF93DF93EC018E819F810E94F7241F824B
:102740001E82DF91CF910895CF93DF93EC010E9419
:102750001F1288E48C83DF91CF9108950C94AB1203
:10276000CF93DF93EC0183EA92E00E94420888E471
:102770008C83DF91CF9108951F93CF93DF93EC016A
:10278000162F6C8183EA92E00E945C08612F83EA35
:1027900092E00E94030883EA92E00E9479086C812B
:1027A00070E042E050E083EA92E00E94590883EA38
:1027B00092E00E94B307C82F83EA92E00E94B30719
:1027C00020E030E03C2F822B932BDF91CF911F91A3
:1027D000089560E00E94BC1325E0959587952A95A1
:1027E000E1F7BC01882777FD8095982F0E94AD20E6
:1027F00020E030E040E05EE30E94252208951F9231
:102800000F920FB60F9211242F933F938F939F93A4
:10281000AF93BF938091AE039091AF03A091B003AB
:10282000B091B1033091AD0323E0230F2D3720F495
:102830000196A11DB11D05C026E8230F0296A11D1A
:10284000B11D2093AD038093AE039093AF03A0938B
:10285000B003B093B1038091B2039091B303A09100
:10286000B403B091B5030196A11DB11D8093B203CD
:102870009093B303A093B403B093B503BF91AF910A
:102880009F918F913F912F910F900FBE0F901F90AE
:1028900018952FB7F8946091AE037091AF038091B3
:1028A000B0039091B1032FBF08953FB7F894809182
:1028B000B2039091B303A091B403B091B50326B5D0
:1028C000A89B05C02F3F19F00196A11DB11D3FBF68
:1028D0006627782F892F9A2F620F711D811D911DF8
:1028E00042E0660F771F881F991F4A95D1F7089518
:1028F000CF92DF92EF92FF92CF93DF936B017C0137
:102900000E945514EB01C114D104E104F10489F0D3
:102910000E94031E0E9455146C1B7D0B683E734081
:1029200090F381E0C81AD108E108F108C851DC4FE2
:10293000EACFDF91CF91FF90EF90DF90CF90089595
:10294000019739F0880F991F880F991F02970197F7
:10295000F1F70895789484B5826084BD84B5816070
:1029600084BD85B5826085BD85B5816085BDEEE697
:10297000F0E0808181608083E1E8F0E01082808176
:1029800082608083808181608083E0E8F0E08081E4
:1029900081608083E1E9F0E08081826080838081D2
:1029A00081608083E0E9F0E0808181608083E1ECF8
:1029B000F0E0808184608083808182608083808178
:1029C00081608083E3ECF0E0808181608083E0ECD3
:1029D000F0E0808182608083E2ECF0E080818160C1
:1029E0008083EAE7F0E08081846080838081826078
:1029F0008083808181608083808180688083089566
:102A0000823108F08251E82FF0E0E654FE4FE49165
:102A100080917B00E3FB222720F930E095E0220F34
:102A2000331F9A95E1F78F7D822B80937B00E770AF
:102A30008091320120E4829FC0011124E82BE093B1
:102A40007C0080917A00806480937A0080917A0083
:102A500086FDFCCF809178002091790090E0922B48
:102A600008951F93CF93DF93182FEB0161E00E942D
:102A70000516209711F460E004C0CF3FD10539F46A
:102A800061E0812FDF91CF911F910C943E16E12FD1
:102A9000F0E0EA53FE4F449150E0FA013197EF30F5
:102AA000F10508F06CC0EA5AFF4F0C943F2484B53E
:102AB000806884BDC7BD68C084B5806284BDC8BD60
:102AC00063C080918000806880938000D0938900EB
:102AD000C093880059C080918000806280938000FC
:102AE000D0938B00C0938A004FC080918000886093
:102AF00080938000D0938D00C0938C0045C080915E
:102B00009000806880939000D0939900C0939800C3
:102B10003BC080919000806280939000D0939B0096
:102B2000C0939A0031C0809190008860809390009B
:102B3000D0939D00C0939C0027C08091C000806806
:102B40008093C0008091C0008F7B8093C000C093B1
:102B5000CF001AC08091C00080628093C000C093F3
:102B6000D00012C08091C20088608093C200809122
:102B7000C2008B7F8093C200C093D20005C0C038D2
:102B8000D1050CF07DCF77CFDF91CF911F910895C4
:102B900090E0FC013197EF30F105B0F5EB59FF4FB4
:102BA0000C943F24809180008F7703C08091800037
:102BB0008F7D80938000089580918000877FF9CF7A
:102BC00084B58F7702C084B58F7D84BD08958091D0
:102BD00090008F7707C0809190008F7D03C0809117
:102BE0009000877F8093900008958091C0008F7738
:102BF00003C08091C0008F7D8093C00008958091B4
:102C0000C200877F8093C2000895CF93DF9390E046
:102C1000FC01EC51FE4F2491FC01EE5FFD4F8491CD
:102C2000882349F190E0880F991FFC01E45CFD4F77
:102C3000A591B491825D9D4FFC01C591D4919FB740
:102C4000611108C0F8948C91209582238C9388811F
:102C500082230AC0623051F4F8948C91322F30955F
:102C600083238C938881822B888304C0F8948C9171
:102C7000822B8C939FBFDF91CF9108950F931F9369
:102C8000CF93DF931F92CDB7DEB7282F30E0F90145
:102C9000EA53FE4F8491F901EC51FE4F1491F90172
:102CA000EE5FFD4F04910023C9F0882321F0698372
:102CB0000E94C8156981E02FF0E0EE0FFF1FE25D72
:102CC000FD4FA591B4919FB7F8948C91611103C009
:102CD0001095812301C0812B8C939FBF0F90DF91B2
:102CE000CF911F910F910895CF93DF93282F30E05C
:102CF000F901EA53FE4F8491F901EC51FE4FD49152
:102D0000F901EE5FFD4FC491CC2391F081110E9437
:102D1000C815EC2FF0E0EE0FFF1FE05EFD4FA59110
:102D2000B4912C912D2381E090E021F480E002C049
:102D300080E090E0DF91CF910895CF93DF931F92D1
:102D4000CDB7DEB76983DC01ED91FC910280F381A0
:102D5000E02D41E050E0BE016F5F7F4F09950F907D
:102D6000DF91CF910895CF93DF93EC018C859D8502
:102D700097FF05C082E00E94651A9D878C878C852D
:102D80009D85DF91CF91089583E00C94BA1CFC01DE
:102D90008485958597FD06C082E00E940D1A90E01B
:102DA0000196089582E00E940D1A90E00895FC01BA
:102DB0008485958597FD05C02FEF3FEF35872487E4
:102DC000089582E00C94651ACF93DF93EC01809113
:102DD0003A01882331F083E00E94961A18161906EA
:102DE00034F081E090E09B838A8380E090E0DF9183
:102DF000CF910895FC0120812E5F208342E450E0B2
:102E00006AE472E080E80C94311BFC0181819081BE
:102E1000913A59F4813209F03CC047E050E063E355
:102E200071E080E00E94311B43C0913291F5803205
:102E300039F467E070E083E391E00E94621B06C012
:102E4000823209F035C0828180933A01809133014A
:102E500090913401A0913501B0913601803B9440AE
:102E6000A105B105C1F480913A0180FD14C087E746
:102E700097E790930108809300082BE088E190E0A9
:102E80000FB6F894A895809360000FBE2093600061
:102E90000FC080E0089588E10FB6F8948093600039
:102EA000109260000FBEA8951092010810920008C1
:102EB00081E008952FEF3FEFFC01358724870895C7
:102EC0001092B9031092B80388EE93E0A0E0B0E04E
:102ED0008093BA039093BB03A093BC03B093BD034C
:102EE00081E891E09093B7038093B6038FEF9FEF53
:102EF0009093C3038093C2030895FC01818D228DBA
:102F000090E0805C9F4F821B91098F7399270895F1
:102F1000FC01918D828D981731F0828DE80FF11DA3
:102F2000858D90E008958FEF9FEF0895FC01918DBE
:102F3000828D981761F0828DDF01A80FB11D5D961B
:102F40008C91928D9F5F9F73928F90E008958FEF89
:102F50009FEF089588EB98E1892B49F080E090E09D
:102F6000892B29F00E94B81881110C940000089553
:102F7000FC01848DDF01A80FB11DA35ABF4F2C9116
:102F8000848D90E001968F739927848FA689B789E5
:102F90002C93A089B1898C9180648C93938D848DBE
:102FA000981306C00288F389E02D80818F7D80838D
:102FB0000895CF93DF93EC01888D8823C9F0EA89C7
:102FC000FB89808185FD05C0A889B9898C9186FD22
:102FD0000FC00FB607FCF5CF808185FFF2CFA8891F
:102FE000B9898C9185FFEDCFCE010E94B817E7CF4C
:102FF000DF91CF910895CF92DF92FF920F931F93AD
:10300000CF93DF931F92CDB7DEB76C01DC015B96E7
:103010009C915B975C968C915C97981307C0509637
:10302000ED91FC915197808185FD32C0F601038DB1
:1030300010E00F5F1F4F0F731127F02EF601848DE4
:10304000F81211C00FB607FCF9CFD6015096ED91DA
:10305000FC915197808185FFF1CFC60169830E9461
:10306000B8176981EBCF838DE80FF11DE35AFF4F4D
:103070006083D6015B960C935B975296ED91FC9121
:10308000539780818062808381E058968C930DC035
:10309000D6015696ED91FC91579760835096ED912D
:1030A000FC91519780818064808381E090E00F9053
:1030B000DF91CF911F910F91FF90DF90CF900895F6
:1030C0001F920F920FB60F9211242F938F939F93FD
:1030D000EF93FF93E0911604F09117048081E09143
:1030E0001C04F0911D0482FD12C0908180911F0488
:1030F0008F5F8F7320912004821751F0E0911F049D
:10310000F0E0EA5FFB4F958F80931F0401C0808140
:10311000FF91EF919F918F912F910F900FBE0F9084
:103120001F9018951F920F920FB60F9211242F9394
:103130003F934F935F936F937F938F939F93AF933F
:10314000BF93EF93FF9386E094E00E94B817FF913E
:10315000EF91BF91AF919F918F917F916F915F910F
:103160004F913F912F910F900FBE0F901F90189588
:1031700086E094E00E947D1721E0892B09F420E08D
:10318000822F0895109209041092080488EE93E0AB
:10319000A0E0B0E080930A0490930B04A0930C0489
:1031A000B0930D0481E991E09093070480930604A5
:1031B0008DEC90E090931304809312048CEC90E0DB
:1031C000909315048093140488EC90E09093170476
:1031D0008093160489EC90E090931904809318046E
:1031E0008AEC90E090931B0480931A048EEC90E09C
:1031F00090931D0480931C0410921F0410922004CD
:103200001092210410922204089508950E94AA1495
:103210000E94051983EA94E00E941A1D0E94290267
:10322000CAEAD7E10E9469052097E1F30E94AA1734
:10323000F9CFCF92DF92EF92FF920F931F93CF932C
:10324000DF936C017A01EB01E60EF71E00E010E05F
:10325000CE15DF0561F06991D601ED91FC910190E9
:10326000F081E02DC6010995080F191FF1CFC801A3
:10327000DF91CF911F910F91FF90EF90DF90CF9052
:1032800008956115710581F0DB010D900020E9F7CB
:10329000AD0141505109461B570BDC01ED91FC91EA
:1032A0000280F381E02D099480E090E00895DC0134
:1032B000ED91FC91DB0114964D915C9115976D9108
:1032C0007C910280F381E02D09940C944119DC017A
:1032D000ED91FC910190F081E02D09940F931F93E3
:1032E000CF93DF93EC016DE00E9467198C016AE0D7
:1032F000CE010E946719800F911FDF91CF911F911E
:103300000F9108950F931F93CF93DF93EC010E94C9
:1033100057198C01CE010E946E19800F911FDF9109
:10332000CF911F910F9108954091A7045091A80447
:103330002091A5043091A60442175307B4F490914C
:10334000E8009570E1F39091E80092FD19C0809338
:10335000F1008091A7049091A80401968F7399279A
:10336000892B19F48EEF8093E8008091A704909147
:10337000A80401969093A8048093A70481E008957F
:1033800080E00895CF92DF92FF920F931F93CF9327
:10339000DF931F92CDB7DEB7082F162F862F880F29
:1033A0008E5F99830E94941983E00E949419F02EF5
:1033B000C02E9981D92E8C2D8F19811778F4F601A2
:1033C00084910E949419082F80E00E949419802310
:1033D000FFEFCF1ADF0A8111EECF01C081E00F901D
:1033E000DF91CF911F910F91FF90DF90CF900895C3
:1033F000615030F02091F100FC0120830196F8CF5C
:10340000289884E68093AA0408952FB7FC012083AE
:10341000F89467706093E9000895CF93DF931F924B
:10342000CDB7DEB7682FCE0101960E94051A8091B4
:10343000F20099819FBF0F90DF91CF910895FF9285
:103440000F931F93CF93DF9300D0CDB7DEB7F62E47
:103450008A019091A904992311F057FF03C08FEFBF
:103460009FEF2BC0682FCE0101967A830E94051A28
:103470008091F20090E0A8017A81801791070CF406
:10348000AC01EF2DF72FF40E84E6FE1639F02898E4
:103490008093AA049091F1009193F7CF41155105C3
:1034A00021F08091F200882321F089818FBFCA0129
:1034B00004C08BE68093E800F8CF0F900F90DF9167
:1034C000CF911F910F91FF900895CF93DF931F929B
:1034D000CDB7DEB741E050E0BE016F5F7F4F0E9485
:1034E0001F1A019719F4898190E002C08FEF9FEFB6
:1034F0000F90DF91CF910895CF93DF931F92CDB7B7
:10350000DEB7682FCE0101960E94051A9091E8005F
:10351000892F807295FF04C09091F20080E4891B8E
:1035200099819FBF0F90DF91CF9108956F927F9205
:103530008F929F92AF92BF92CF92DF92EF92FF92C3
:103540000F931F93CF93DF931F92CDB7DEB7782EE3
:103550007B01C42EB52E8091A904882369F0042F25
:10356000152F8AEFD82E872D8072982E9AE3A92ED8
:10357000872D8074882E11C08FEF9FEF57C0872D45
:103580000E947C1A682E81110CC0DA94A9F361E0C4
:1035900070E080E090E00E9478140115110579F741
:1035A0003BC0282F30E0021713070CF4602E672D64
:1035B000CE0101960E94051A8091E80085FF29C07E
:1035C000262D30E0021B130B992039F06A948FEFFF
:1035D0006816B1F01092F100F9CFF701862D77FE51
:1035E00007C0815058F094919093F1003196F9CF33
:1035F000815020F091919093F100FACFE20EF31EEA
:103600008091E80085FF0FC00115110511F48110AC
:103610000AC089818FBFC1CF5D9884E68093AB04D7
:103620008C2D9B2D03C0A092E800F3CF0F90DF916B
:10363000CF911F910F91FF90EF90DF90CF90BF90AF
:10364000AF909F908F907F906F9008951092E900B7
:103650001092A8041092A7049093A6048093A50446
:103660000895CF92DF92FF920F931F93CF93DF9332
:1036700000D0CDB7DEB7F82E8A016B010115110518
:10368000B1F0F601F7FE02C0849101C08081498348
:103690005A830E94941901501109FFEFCF1ADF0AD3
:1036A00049815A818111EACF8FEF9FEF01C0CA0192
:1036B0000F900F90DF91CF911F910F91FF90DF90AE
:1036C000CF9008951F93CF93DF931F92CDB7DEB7AE
:1036D000162F2091E80022FFFCCF612F79830E94F2
:1036E000F8198BEF8093E800812F7981972F0F9045
:1036F000DF91CF911F910895CF93DF931F92CDB7A4
:10370000DEB71982CE0101960E94FA16CE0101960B
:103710000E94221E898190E00F90DF91CF91089541
:103720001F920F920FB60F921124EF92FF920F93F8
:103730001F932F933F934F935F936F937F938F9339
:103740009F93AF93BF93EF93FF93CF93DF93CDB747
:10375000DEB76297DEBFCDBF1092E9008091E8002E
:1037600083FFEBC068E0CE010A960E94F81982EF51
:103770008093E8009A8597FF05C08091E80080FF5C
:10378000FCCF03C08EEF8093E800892F807609F08C
:10379000B9C08B85811105C01092F1001092F10023
:1037A000C5C0282F2D7F213009F4C0C0853049F4D1
:1037B0008091E80080FFFCCF8C8580688093E300D7
:1037C000B5C0863009F076C02D85E888F9882230AA
:1037D00071F580E090E02A8B0E94261B0E947C1BE2
:1037E00099E08E010F5F1F4FF801392F11923A9522
:1037F000E9F799832A892A8391E09E8390E8988744
:103800009AEF99872091A7043091A804275F3F4F32
:103810003C832B838D83C7010E94261B49E050E027
:10382000B80180E00E94311B0E947C1B7FC0C70151
:103830002A8B0E94261B2A89223241F482E290E0E0
:103840000E942D1E892B09F071C074C0213069F4CB
:1038500088899989089711F42093A4048091A4047D
:10386000811118C063EA72E01AC0233009F062C007
:103870008C85882391F0823021F460E181EC92E024
:1038800006C0813009F056C06BE085EB92E00E94E3
:10389000C2194AC061E972E002C062ED72E06115CE
:1038A000710509F447C0FB01449150E080E80E9493
:1038B000311B3CC0873009F43DC0883021F481E0E1
:1038C0008093F10033C0893089F5937099F5EDE864
:1038D000F2E081E021E096E38093E9002093EB00A1
:1038E00034913093EC009093ED008F5F31968530EA
:1038F00099F78EE78093EA001092EA008C85809316
:10390000A90414C0888999890E94261B8E8581117B
:1039100005C0CE010A960E94051706C0823051F4F8
:10392000CE010A960E94551E882321F08EEF8093C7
:10393000E80003C081E28093EB0062960FB6F89432
:10394000DEBF0FBECDBFDF91CF91FF91EF91BF9151
:10395000AF919F918F917F916F915F914F913F9127
:103960002F911F910F91FF90EF900F900FBE0F902E
:103970001F9018958093E9008091F200882319F038
:103980008AE38093E80008951F920F920FB60F927A
:1039900011242F933F934F935F936F937F938F9354
:1039A0009F93AF93BF93EF93FF938091E1001092A9
:1039B000E10083FF0FC01092E90091E09093EB00CB
:1039C0001092EC0092E39093ED001092A90498E01D
:1039D0009093F00082FF1DC083E00E94BA1C80918A
:1039E000AB04882339F08091AB0481508093AB0401
:1039F000882369F08091AA04882359F08091AA0451
:103A000081508093AA04811104C0289A02C05D9A53
:103A1000F1CFFF91EF91BF91AF919F918F917F91E6
:103A20006F915F914F913F912F910F900FBE0F902B
:103A30001F9018951092A90481E08093D70080EA26
:103A40008093D80082E189BD09B400FEFDCF61E01A
:103A500070E080E090E00E94781480E98093D800C4
:103A60008CE08093E2001092E000559A209A08952D
:103A70004F925F926F927F92AF92BF92CF92DF92FE
:103A8000EF92FF920F931F93CF93DF93CDB7DEB7E3
:103A900029013A01621B730B840B950B29893A8922
:103AA0004B895C892A193B094C095D09298B3A8BA2
:103AB0004B8B5C8B9B01AC0169897A898B899C89D2
:103AC0000E94BA23E418F50806091709A80197010E
:103AD0000E9420242A0D3B1D4C1D5D1DCA01B90109
:103AE000DF91CF911F910F91FF90EF90DF90CF90DA
:103AF000BF90AF907F906F905F904F900895FC01C2
:103B0000808191810C94F724CF93DF93EC0188811D
:103B10009981009711F00E94F724198218821D8262
:103B20001C821B821A82DF91CF9108950F931F93FD
:103B3000CF93DF93EC018B016F5F7F4F8881998179
:103B40000E948625009731F0998388831B830A831E
:103B500081E001C080E0DF91CF911F910F91089526
:103B6000CF93DF93EC0188819981892B29F08A8199
:103B70009B818617970760F4CE010E94961D8823CB
:103B800041F08C819D81892B19F4E881F9811082A3
:103B900081E0DF91CF910895EF92FF920F931F93F1
:103BA000CF93DF93EC017B018A01BA010E94B01D23
:103BB000811104C0CE010E94841D07C01D830C83A7
:103BC000B701888199810E945926CE01DF91CF915A
:103BD0001F910F91FF90EF900895FC0111821082C8
:103BE00013821282158214826115710559F0FB014E
:103BF00001900020E9F7AF0141505109461B570BD6
:103C00000C94CC1D08950895FF920F931F93CF93AA
:103C1000DF93EC01F62EE881F9810480F581E02D37
:103C200009958C01E881F9810680F781E02D6F2DDF
:103C3000CE010995C8019927DF91CF911F910F916E
:103C4000FF900895FC0120812F5F208349E150E01F
:103C500066E573E080E80C94311B45E650E06FE6C2
:103C600073E080E80C94311BEF92FF920F931F9347
:103C7000CF93DF931F92CDB7DEB789838B017A0193
:103C800041E050E0BE016F5F7F4F84E00E94961AD2
:103C9000A701B80184E40E94961A0F90DF91CF919A
:103CA0001F910F91FF90EF900895FC019181808109
:103CB000813A31F481E0913091F0933089F411C070
:103CC000813271F49B3021F4828180933C0105C0E4
:103CD0009A3031F4828180933B0181E00895089508
:103CE00080E0089548E050E082E00C94341ECF93C9
:103CF000DF93DC01683818F0E8E7E60F25C0E62F0F
:103D0000F0E067FF11C0E058F10981E090E001C0E8
:103D1000880FEA95EAF714969C911497982B1496BD
:103D20009C931497E0E010C0EA52FD4FE491EE231B
:103D300009F440C0E7FF08C014968C911497826084
:103D400014968C931497EF7716968C9116978E177E
:103D500041F117968C9117978E1719F118968C913F
:103D600018978E17F1F019968C9119978E17C9F044
:103D70001A968C911A978E17A1F01B968C911B970F
:103D80008E1779F080E090E0ED01C80FD91F2E81E9
:103D9000211102C0EE8305C0019686309105A1F77E
:103DA00009C0BD016C5F7F4FCD010E94721E81E092
:103DB00090E008C081E090E013969C938E93129758
:103DC00080E090E0DF91CF910895683818F0E8E73F
:103DD000E60F25C0E62FF0E067FF12C0E058F109BA
:103DE00021E030E001C0220FEA95EAF72095DC01DE
:103DF00014963C911497322314963C93E0E00FC044
:103E0000EA52FD4FE491EE2329F1E7FF08C0DC01FF
:103E100014962C9114972D7F14962C93EF7720E015
:103E200030E0EE2351F0DC01A20FB31F16964C9147
:103E300016974E1302C016961C922F5F3F4F2630E6
:103E4000310579F7BC016C5F7F4F0E94721E81E0E3
:103E500090E0089580E090E00895FC0116821782BA
:103E600010861186128613861482BC016C5F7F4F08
:103E70000C94721E1092B8041092AF041092AE040B
:103E800081EA91E09093AD048093AC04089550587A
:103E9000BB27AA270ED038C229D230F02ED220F06C
:103EA00031F49F3F11F41EF4F9C10EF4E095E7FBE5
:103EB000C6C1E92F3AD280F3BA17620773078407A5
:103EC000950718F071F49EF569C20EF4E0950B2E7B
:103ED000BA2FA02D0B01B90190010C01CA01A0015C
:103EE0001124FF27591B99F0593F50F4503E68F1B7
:103EF0001A16F040A22F232F342F4427585FF3CFF8
:103F0000469537952795A795F0405395C9F77EF4C8
:103F10001F16BA0B620B730B840BBAF09150A1F011
:103F2000FF0FBB1F661F771F881FC2F70EC0BA0F97
:103F3000621F731F841F48F4879577956795B7951F
:103F4000F7959E3F08F0B3CF9395880F08F0992717
:103F5000EE0F979587950895C9D158F080E891E0C4
:103F600009F49EEFCAD128F040E851E059F45EEF21
:103F700009C094C113C2E92FE078D7D168F3092EA4
:103F8000052AC1F3261737074807590738F00E2EC0
:103F900007F8E02569F0E025E0640AC0EF6307F860
:103FA000009407FADB01B9019D01DC01CA01AD01F2
:103FB000EF9347D0A9D10AD05F91552331F02BED73
:103FC0003FE049E450FD49EC63CF0895DF93DD27DE
:103FD000B92FBF7740E85FE31616170648075B075F
:103FE00010F4D92FE6D19F938F937F936F931ED3B5
:103FF000E8EEF0E056D188D12F913F914F915F913B
:1040000030D2DD2349F09058A2EA2AED3FE049EC96
:104010005FE3D0785D274DDFDF9176C1ECD008F407
:1040200081E008950CD070C168D140F05FD130F0CC
:1040300021F45F3F19F003C15111B1C12FC175D1F6
:1040400098F39923C9F35523B1F3951B550BBB275F
:10405000AA2762177307840738F09F5F5F4F220F0C
:10406000331F441FAA1FA9F333D00E2E3AF0E0E805
:1040700030D091505040E695001CCAF729D0FE2F51
:1040800027D0660F771F881FBB1F261737074807E3
:10409000AB07B0E809F0BB0B802DBF01FF27935899
:1040A0005F4F2AF09E3F510568F0C9C078C15F3F5D
:1040B000ECF3983EDCF3869577956795B795F79581
:1040C0009F5FC9F7880F911D9695879597F9089579
:1040D000E1E0660F771F881FBB1F62177307840715
:1040E000BA0720F0621B730B840BBA0BEE1F88F724
:1040F000E095089504D06894B11151C108951DD17F
:1041000088F09F5790F0B92F9927B751A0F0D1F0C0
:10411000660F771F881F991F1AF0BA95C9F712C04A
:10412000B13081F03BD1B1E0089538C1672F782FCD
:104130008827B85F39F0B93FCCF3869577956795B6
:10414000B395D9F73EF490958095709561957F4F22
:104150008F4F9F4F0895E89409C097FB3EF49095C8
:104160008095709561957F4F8F4F9F4F9923A9F050
:10417000F92F96E9BB279395F695879577956795DF
:10418000B795F111F8CFFAF4BB0F11F460FF1BC023
:104190006F5F7F4F8F4F9F4F16C0882311F096E9B6
:1041A00011C0772321F09EE8872F762F05C0662364
:1041B00071F096E8862F70E060E02AF09A95660F1D
:1041C000771F881FDAF7880F9695879597F90895D6
:1041D000CED080F09F3740F491110EF0E0C060E047
:1041E00070E080E89FEB089526F41B16611D711D99
:1041F000811D2BC045C0990F0008550FAA0BE0E8A0
:10420000FEEF16161706E807F907C0F01216130698
:10421000E407F50798F0621B730B840B950B39F4D8
:104220000A2661F0232B242B252B21F408950A263E
:1042300009F4A140A6958FEF811D811D089597F97E
:104240009F6780E870E060E00895882371F4772329
:1042500021F09850872B762F07C0662311F49927F9
:104260000DC09051862B70E060E02AF09A95660FA1
:10427000771F881FDAF7880F9695879597F9089525
:104280009F3F31F0915020F4879577956795B795CA
:10429000880F911D9695879597F908959FEF80EC6B
:1042A0000895DF93CF931F930F93FF92EF92DF92C6
:1042B0007B018C01689405C0DA2EEF01D2D0FE019B
:1042C000E894A5912591359145915591AEF3EF0173
:1042D000F0DDFE019701A801DA9479F7DF90EF9005
:1042E000FF900F911F91CF91DF91089500240A94C0
:1042F0001616170618060906089500240A941216C1
:104300001306140605060895092E0394000C11F4F3
:10431000882352F0BB0F40F4BF2B11F460FF04C0A0
:104320006F5F7F4F8F4F9F4F089557FD9058440FF9
:10433000551F59F05F3F71F04795880F97FB991F04
:1043400061F09F3F79F087950895121613061406C1
:10435000551FF2CF4695F1DF08C01616170618064E
:10436000991FF1CF86957105610508940895E5DFE1
:10437000A0F0BEE7B91788F4BB279F3860F4161683
:10438000B11D672F782F8827985FF7CF869577958F
:104390006795B11D93959639C8F30895E894BB27A6
:1043A00066277727CB0197F9089525DF08F48FEF6B
:1043B00008959B01AC0160E070E080E89FE332CE9D
:1043C0000EF05ECF6BCF68943ACFB7DFC8F3992376
:1043D000D1F3C6F3DF93CF931F930F93FF92C92FAF
:1043E000DD2788232AF02197660F771F881FDAF7C9
:1043F00020E030E040E85FEB9FE3883920F0803E2A
:1044000030F021968F7744DDE5E1F1E003C040DD37
:10441000E2E4F1E046DF8B01BE01EC01FB2E6F57B9
:1044200071097595771F880B990B97DE28E132E7A4
:1044300041E35FE316D0AF2D9801AE01FF900F91DD
:104440001F91CF91DF9135DD5FCF0BD05DCF4EDF78
:1044500028F053DF18F0952309F0F1CE1FCF112477
:104460009ECF63DFA0F3959FD1F3950F50E0551FCA
:10447000629FF001729FBB27F00DB11D639FAA27B9
:10448000F00DB11DAA1F649F6627B00DA11D661F08
:10449000829F2227B00DA11D621F739FB00DA11D29
:1044A000621F839FA00D611D221F749F3327A00DE3
:1044B000611D231F849F600D211D822F762F6A2F7F
:1044C00011249F5750408AF0E1F088234AF0EE0F04
:1044D000FF1FBB1F661F771F881F91505040A9F711
:1044E0009E3F510570F0ABCE5ACF5F3FECF3983E44
:1044F000DCF3869577956795B795F795E7959F5F78
:10450000C1F7FE2B880F911D9695879597F9089511
:10451000FA01EE0FFF1F30962105310599F1611563
:10452000710561F48038BFE39B0749F168949038C6
:10453000810561F08038BFEF9B0741F0992342F578
:10454000FF3FE1053105210511F1E8940894E79555
:10455000D901AA2329F4AB2FBE2FF85FD0F310C0E6
:10456000FF5F70F4A695E0F7F73950F019F0FF3AC5
:1045700038F49F779F930CD00F9007FC90580895C4
:104580003EF08CCE60E070E080E89FE308954FE756
:104590009F775F934F933F932F9317DF2F913F9117
:1045A0004F915F9152DF4AC011F40EF477CE68CE7E
:1045B000C4DED0F39923D9F3CEF39F57550B87FF71
:1045C00069D00024A0E640EA90018058569597955E
:1045D00028F4805C660F771F881F20F026173707A6
:1045E000480730F4621B730B840B202931294A2BB6
:1045F000A69517940794202531254A2758F7660F6A
:10460000771F881F20F026173707480730F4620B02
:10461000730B840B200D311D411DA09581F7B9014D
:10462000842F9158880F9695879508959B01AC012A
:104630000CCF19F40EF003CEB1CE30CE7EDEC8F32F
:104640009638C0F707F80F92E8942BE33AEA48EB64
:104650005FE709DF0F920F920F924DB75EB70F928F
:1046600056D0EFE6F1E01DDE4F915F91EF91FF91A3
:10467000E595EE1FFF1F49F0FE57E0684427EE0F57
:10468000441FFA95E1F74195550B0DD00F9007FEA9
:1046900090CE089591505040660F771F881FD2F733
:1046A0000895CDCDEDCD49DEE8F39923D9F3940FEC
:1046B000511DBBF39150504094F059F0882332F0D3
:1046C000660F771F881F91505040C1F79E3F5105DC
:1046D00044F7880F911D9695879597F908955F3F48
:1046E000ACF0983E9CF0BB27869577956795B7957B
:1046F00008F4B1609395C1F7BB0F58F711F460FF50
:10470000E8CF6F5F7F4F8F4F9F4FE3CF48CEFA01C7
:10471000DC01AA0FBB1F9B01AC01BF5728F4222765
:104720003327442750781FC0B75188F4AB2F00249B
:10473000469537952795011CA395D2F3002069F083
:10474000220F331F441FB395DAF30DD0A0CB613095
:104750007105A0E88A07B94630F49B01AC016627D1
:10476000772788279078309621F020833183428301
:1047700053830895DB018F939F930E944524BF913B
:10478000AF91A29F800D911DA39F900DB29F900DA0
:1047900011240895991B79E004C0991F961708F019
:1047A000961B881F7A95C9F780950895AA1BBB1B95
:1047B00051E107C0AA1FBB1FA617B70710F0A61B21
:1047C000B70B881F991F5A95A9F780959095BC0142
:1047D000CD01089597FB072E16F4009407D077FDBE
:1047E00009D00E94D62307FC05D03EF49095819510
:1047F0009F4F0895709561957F4F0895A1E21A2EFD
:10480000AA1BBB1BFD010DC0AA1FBB1FEE1FFF1F74
:10481000A217B307E407F50720F0A21BB30BE40BC4
:10482000F50B661F771F881F991F1A9469F760950B
:104830007095809590959B01AC01BD01CF010895C5
:10484000052E97FB1EF400940E94372457FD07D0D5
:104850000E94FE2307FC03D04EF40C94372450959D
:104860004095309521953F4F4F4F5F4F089590955C
:104870008095709561957F4F8F4F9F4F0895EE0FF4
:10488000FF1F0590F491E02D09940E945024A59FEC
:10489000900DB49F900DA49F800D911D112408953B
:1048A000A29FB001B39FC001A39F700D811D112471
:1048B000911DB29F700D811D1124911D0895CF93FC
:1048C000DF938230910510F482E090E0E091BB0428
:1048D000F091BC0420E030E0A0E0B0E0309739F186
:1048E0004081518148175907B8F04817590771F4AA
:1048F00082819381109729F013969C938E9312973F
:104900002CC09093BC048093BB0427C021153105B3
:1049100031F04217530718F0A901DB0101C0EF0184
:104920009A01BD01DF010280F381E02DD7CF21156F
:104930003105F9F0281B390B2430310580F48A81C8
:104940009B816115710521F0FB019383828304C073
:104950009093BC048093BB04FE01329644C0FE01D8
:10496000E20FF31F819391932250310939832883F9
:104970003AC02091B9043091BA04232B41F420911C
:104980000201309103013093BA042093B9042091BD
:104990000001309101012115310541F42DB73EB7D9
:1049A0004091040150910501241B350BE091B9049D
:1049B000F091BA04E217F307A0F42E1B3F0B28175F
:1049C000390778F0AC014E5F5F4F2417350748F088
:1049D0004E0F5F1F5093BA044093B9048193919393
:1049E00002C0E0E0F0E0CF01DF91CF910895CF93D6
:1049F000DF93009709F487C0FC013297138212827B
:104A0000C091BB04D091BC04209781F420813181F6
:104A1000280F391F8091B9049091BA048217930727
:104A200079F5F093BA04E093B9046DC0DE0120E09B
:104A300030E0AE17BF0750F412964D915C9113977A
:104A40009D014115510509F1DA01F3CFB383A2832A
:104A500040815181840F951F8A179B0771F48D91B6
:104A60009C911197840F951F0296918380831296D3
:104A70008D919C911397938382832115310529F49D
:104A8000F093BC04E093BB043EC0D9011396FC93A1
:104A9000EE9312974D915D91A40FB51FEA17FB0796
:104AA00079F480819181840F951F0296D901119626
:104AB0009C938E938281938113969C938E931297ED
:104AC000E0E0F0E08A819B81009719F0FE01EC01A3
:104AD000F9CFCE01029628813981820F931F209150
:104AE000B9043091BA042817390769F4309729F4CA
:104AF0001092BC041092BB0402C013821282D093A5
:104B0000BA04C093B904DF91CF910895A0E0B0E05A
:104B1000ECE8F5E20C949126EC01CB01209719F416
:104B20000E945F24B8C0FE01E60FF71F9E012250CD
:104B30003109E217F30708F4ACC0D9010D911C91BB
:104B4000119706171707B8F00530110508F49FC034
:104B5000A801445051094617570708F498C002505D
:104B60001109061B170B019311936D937C93CF01D1
:104B70000E94F7248CC05B01A01AB10A4E01800E7E
:104B8000911EA091BB04B091BC04612C712C60E01B
:104B900070E0109709F449C0A815B905C9F5ED9062
:104BA000FC901197670142E0C40ED11CCA14DB04CB
:104BB00078F147018A189B08640142E0C40ED11CB9
:104BC0001296BC9012971396AC91B5E0CB16D10417
:104BD00040F0B282A38391828082D9018D939C930D
:104BE00009C00E5F1F4F0E0D1F1DF90111830083B9
:104BF000EB2DFA2F6115710531F0DB011396FC9353
:104C0000EE93129744C0F093BC04E093BB043FC002
:104C10006D917C9111976616770608F43B01BD01F2
:104C200012960D90BC91A02DB4CF6091B9047091F3
:104C3000BA0468157905E9F468167906D0F440914C
:104C40000001509101014115510541F44DB75EB786
:104C50006091040170910501461B570BE417F5079D
:104C6000C0F4F093BA04E093B904F901918380830E
:104C70000EC00E945F247C01009759F0A801BE017C
:104C80000E945026CE010E94F724C70104C0CE0125
:104C900002C080E090E0CDB7DEB7EEE00C94AD2628
:104CA000FB01DC0102C001900D9241505040D8F749
:104CB0000895FB01DC0101900D920020E1F70895B9
:104CC0000F931F93CF93DF93E091BF04F091C00443
:104CD000238121FF1BC0EC0100E010E0899160916D
:104CE000BF047091C004DB011896ED91FC911997F7
:104CF000882331F00995892B89F30FEF1FEFEECF51
:104D00008AE00995892B11F4C80102C08FEF9FEF4B
:104D1000DF91CF911F910F9108952F923F924F9263
:104D20005F926F927F928F929F92AF92BF92CF923B
:104D3000DF92EF92FF920F931F93CF93DF93CDB744
:104D4000DEB7CA1BDB0B0FB6F894DEBF0FBECDBFBC
:104D500009942A88398848885F846E847D848C848D
:104D60009B84AA84B984C884DF80EE80FD800C8196
:104D70001B81AA81B981CE0FD11D0FB6F894DEBF79
:104D80000FBECDBFED01089513E0C0EED3E004C027
:104D9000FE010E9441242296C23ED107C9F7F89431
:024DA000FFCF43
:104DA2000000C30480000100000000000C170F1671
:104DB200051506140B130D1209070A0409070A0444
:104DC2000B0607020D0000000000000000000000BA
:104DD20000000100E10000000000000101566572C0
:104DE20073696F6E3A200030362E30312E303330F8
:104DF20000000000000308D607AB07B307C607D5BB
:104E0200075468657265206973206E6F7420656E41
:104E12006F756768207370616365210D0000000083
:104E2200009D16E416C716D716B316C41600000066
:104E320000FB1719197D1796178817D9170000005C
:0C4E420000041E1919771EE51E2D1F002C
:00000001FF
