:100000000C941E040C9446040C9446040C94460470
:100010000C9446040C9446040C9446040C94460438
:100020000C9446040C9446040C940D1D0C947F1DF6
:100030000C9446040C9446040C9446040C94460418
:100040000C9446040C9446040C9446040C94460408
:100050000C9446040C9446040C9446040C94D62349
:100060000C9446040C94FB1F0C94D51F0C9446046E
:100070000C9446040C9446040C9446040C944604D8
:100080000C946B150C9446040C9446040C94460492
:100090000C94F3190C9446040C9446040C944604F6
:1000A0000C9446040C9405180C9446048A208D2068
:1000B0007C2080208620AE20AE20AE20912095208E
:1000C00099209F20A320AE20A9206E22732278229F
:1000D00082228C22D622D622D6229622A022AA22A0
:1000E000B422C122D622C922084AD73B3BCE016E98
:1000F00084BCBFFDC12F3D6C74319ABD56833DDA7F
:100100003D00C77F11BED9E4BB4C3E916BAAAABE8D
:10011000000000803F07634236B79BD8A71A3968B2
:100120005618AEBAAB558C1D3CB7CC5763BD6DEDC0
:10013000FD753EF6177231BF000000803F080000D9
:1001400000BE922449123EABAAAA2ABECDCCCC4C0A
:100150003E00000080BEABAAAAAA3E00000000BF7D
:10016000000000803F0000000000084178D3BB433E
:1001700087D1133D190E3CC3BD4282AD2B3E68ECC6
:100180008276BED98FE1A93E4C80EFFFBE01C4FF4D
:100190007F3F0000000000003F065B4F666D7D075B
:1001A0007F6F777C395E7971BF86DBCFE6EDFD87A7
:1001B000FFEFF7FCB9DEF9F10040080B0002020284
:1001C00001000904000001020200000524001001E2
:1001D0000524010101042402060524060001070587
:1001E000810310004009040100020A000000070515
:1001F00002024000000705830240000004030904D6
:1002000041726475696E6F204C4C43004A75706989
:100210007465720012010002000000404123538007
:1002200000010102030112010002EF02014041231B
:10023000538000010102030100000000003E5B4FFB
:100240005B3E3E6B4F6B3E1C3E7C3E1C183C7E3C36
:10025000181C577D571C1C5E7F5E1C00183C180044
:10026000FFE7C3E7FF0018241800FFE7DBE7FF30D4
:10027000483A060E2629792926407F050507407F42
:1002800005253F5A3CE73C5A7F3E1C1C08081C1CB5
:100290003E7F14227F22145F5F005F5F06097F01AB
:1002A0007F006689956A606060606094A2FFA29496
:1002B00008047E040810207E201008082A1C080864
:1002C0001C2A08081E101010100C1E0C1E0C3038B2
:1002D0003E3830060E3E0E06000000000000005FB3
:1002E00000000007000700147F147F14242A7F2ACF
:1002F0001223130864623649562050000807030091
:10030000001C2241000041221C002A1C7F1C2A08DC
:10031000083E08080080703000080808080800003F
:1003200060600020100804023E5149453E00427FB3
:10033000400072494949462141494D331814127F02
:100340001027454545393C4A4949314121110907A2
:100350003649494936464949291E00001400000023
:1003600040340000000814224114141414140041F5
:1003700022140802015909063E415D594E7C1211B2
:10038000127C7F494949363E414141227F414141EA
:100390003E7F494949417F090909013E4141517365
:1003A0007F0808087F00417F41002040413F017FD6
:1003B000081422417F404040407F021C027F7F049E
:1003C00008107F3E4141413E7F090909063E4151E7
:1003D000215E7F09192946264949493203017F01D7
:1003E000033F4040403F1F2040201F3F4038403FD8
:1003F000631408146303047804036159494D4300EE
:100400007F4141410204081020004141417F040224
:1004100001020440404040400003070800205454BB
:1004200078407F2844443838444444283844442899
:100430007F385454541800087E090218A4A49C78EC
:100440007F0804047800447D40002040403D007F48
:100450001028440000417F40007C047804787C0828
:100460000404783844444438FC18242418182424FC
:1004700018FC7C08040408485454542404043F44E1
:10048000243C4040207C1C2040201C3C4030403C10
:1004900044281028444C9090907C4464544C440070
:1004A00008364100000077000000413608000201D4
:1004B0000204023C2623263C1EA1A161123A4040C0
:1004C000207A38545455592155557941215454783E
:1004D00041215554784020545579400C1E527212D7
:1004E000395555555939545454593955545458005F
:1004F00000457C410002457D420001457C40F029D9
:100500002429F0F0282528F07C5455450020545427
:100510007C547C0A097F493249494932324848486B
:1005200032324A4848303A4141217A3A42402078B2
:10053000009DA0A07D39444444393D4040403D3CAD
:1005400024FF2424487E4943662B2FFC2F2BFF09D0
:1005500029F620C0887E09032054547941000044C4
:100560007D413048484A32384040227A007A0A0AAF
:10057000727D0D19317D2629292F28262929292622
:1005800030484D4020380808080808080808382F67
:1005900010C8ACBA2F102834FA00007B00000814F1
:1005A0002A142222142A1408AA005500AAAA55AA1D
:1005B00055AA000000FF00101010FF00141414FFD3
:1005C000001010FF00FF1010F010F0141414FC00C5
:1005D0001414F700FF0000FF00FF1414F404FC14CF
:1005E0001417101F10101F101F1414141F001010C8
:1005F00010F0000000001F101010101F101010103D
:10060000F010000000FF101010101010101010FF5C
:1006100010000000FF140000FF00FF00001F101773
:100620000000FC04F414141710171414F404F4005C
:1006300000FF00F714141414141414F700F7141422
:1006400014171410101F101F141414F4141010F0A9
:1006500010F000001F101F0000001F14000000FC1D
:10066000140000F010F01010FF10FF141414FF1409
:100670001010101F00000000F010FFFFFFFFFFF040
:10068000F0F0F0F0FFFFFF0000000000FFFF0F0F91
:100690000F0F0F38444438447C2A2A3E147E02024D
:1006A0000606027E027E0263554941633844443C9B
:1006B00004407E201E2006027E020299A5E7A5992D
:1006C0001C2A492A1C4C7201724C304A4D4D303064
:1006D00048784830BC625A463D3E494949007E014F
:1006E00001017E2A2A2A2A2A44445F444440514A6E
:1006F000444040444A51400000FF0103E080FF00B5
:100700000008086B6B083612362436060F090F06F0
:10071000000018180000001010003040FF01010018
:100720001F01011E00191D1712003C3C3C3C00003B
:1007300000000000000000240027002A002D0030E7
:1007400000000000002300260029002C002F0000DC
:1007500000000200090F0000030401000C0000006B
:10076000000000000000000000000000000007067C
:1007700005040100080A0B0C0D09040802011040D1
:1007800080401020408040800802040180402010FA
:1007900002011080102040402000000000250028A9
:1007A000002B002E0031000404040404030405029D
:1007B00002020204030202020206060606060604FC
:1007C00004020202040404E010021C07123732295A
:1007D0002D29252B3900010310E110031D07062EDA
:1007E0002C292D2E2E373F0000021013800A29805D
:1007F00064022A040000007F2B040000009F0F0108
:1008000080961180FFB103012C2DB203012C2DB372
:1008100006012C2D012C2DB40107C003A20284C1B6
:1008200001C5C2020A00C3028A2AC4028AEEC501B7
:100830000E20003601C83A010500102A11241FBEFF
:10084000CFEFDAE0DEBFCDBF11E0A0E0B1E0E4EA37
:10085000FDE602C005900D92A83EB107D9F725E04C
:10086000A8EEB1E001C01D92A93FB207E1F714E084
:10087000CEE1D4E004C02197FE010E94112FCD31BA
:10088000D107C9F70E94322B0C94D0360C9400008B
:100890002F923F924F925F926F927F928F929F9290
:1008A000AF92BF92CF92DF92EF92FF920F931F937E
:1008B000CF93DF93CDB7DEB7E4970FB6F894DEBFE2
:1008C0000FBECDBF1092DB05F0909E0510929E05E5
:1008D00000919F0510929F051091A0051092A00510
:1008E000023009F41EC720F4013061F00C945C134F
:1008F000043011F40C940613053011F40C94061313
:100900000C945C138FEF0E94712985E50E94712978
:100910008F2D0E9471296091A1051092A1051731B8
:1009200009F4FCC028F5163009F44CC278F41230F2
:1009300009F4AFC020F4113009F4B5C1E9C6133091
:1009400009F491C0143009F48EC0E2C6113109F4E3
:1009500009C538F4173009F486C01F3009F44AC5B8
:10096000D7C6153109F40FC5163109F40CC5D0C628
:10097000123309F4ECC460F4193109F474C008F4BA
:1009800072C01E3109F4FFC41F3109F46CC0C0C627
:10099000193609F44BC518F5173609F464C0183632
:1009A00009F0B6C60091A2051092A205CE010196EB
:1009B0000E944C19CE0101960E94AF1869E4CE0145
:1009C00001960E94C41861E089850E94DB2160E0E5
:1009D00089850E940B2228E0F22E10E0E4C41A362A
:1009E00009F441C01E3609F093C6F090A20510929A
:1009F000A2051092B30467E08DE00E94EE2586E226
:100A000089838E010F5E1F4F9E012F5F3F4F41E094
:100A1000B9018CE00E94A12660E08DE00E94EE25E5
:100A2000B3E9EB2EE98280E28A839E012F5F3F4F7C
:100A300042E0B9018CE00E94A12685E0FE013196DA
:100A4000A6EAB4E001900D928A95E1F7E98280E789
:100A50008A83E6EAF4E0AE014D5F5F4FCE0108966F
:100A6000D42EE52EC6C580912705861749F085E26C
:100A700095E00E94D51760E0809126050E940B2228
:100A80000E940F28BC01990F880B990B0E942135F9
:100A900066C480917E05861721F08CE795E00E9460
:100AA000D5178091800591E090935F038093810337
:100AB000109260031092820360E080E794E00E944D
:100AC0000D2981E00E946C2562E0809180050E94E2
:100AD000BC2710929A058093990580E794E00E94C4
:100AE000C128182F80E794E00E94C12860E070E0E0
:100AF000712F862B972BBC0145E0759567954A951C
:100B0000E1F7072E000C880B990B0E94213520E09D
:100B100030E040E05EE30E94803521C4809177059B
:100B2000861721F080E795E00E94D51760E080E706
:100B300095E00E94E51764E170E080E090E00E949B
:100B4000042361E080E795E00E94E5178BE990E0DF
:100B50000197F1F760E080E795E00E94E5170E94B9
:100B6000CA236B017C010E940028811110C00E94E1
:100B7000CA23DC01CB018C199D09AE09BF0903977B
:100B8000A105B10580F310927405109275050E94BD
:100B9000CA236B017C010E940028882361F00E9417
:100BA000CA23DC01CB018C199D09AE09BF0903974B
:100BB000A105B10580F310E00E94CA236B017C01FE
:100BC0000E94002881110CC00E94CA23DC01CB01C5
:100BD0008C199D09AE09BF090397A105B10580F3E2
:100BE0000E94DF226B017C010E94CA234B015C0141
:100BF0000E940028882361F00E94CA23DC01CB01F7
:100C000088199909AA09BB090397A105B10580F3C1
:100C10000E94DF22DC01CB018C199D09AE09BF09BE
:100C2000212F2695269526958997A105B10550F087
:100C3000E1E0F0E0EC0FFD1FE20FF11D8081880F75
:100C4000816008C0E1E0F0E0EC0FFD1FE20FF11D54
:100C50008081880F80831F5F183209F0ADCF5981E2
:100C60004B81242F30E0250F311D8D8190E0281716
:100C7000390721F450937405409375058091A205BE
:100C80001092A205813019F46091740506C082307B
:100C900019F46091750501C060E070E080E090E0BB
:100CA0000E941F355CC3CE0101960E94F5178A8110
:100CB0008D830E94CA236F83788789879A8711E082
:100CC0001E831B861C861D861E860E94CA23CF801B
:100CD000D884E984FA84DC01CB018C199D09AE0922
:100CE000BF094897A105B10508F01E838E818823AE
:100CF00009F455C00E94CA236F83788789879A8731
:100D00001E8260E0CE0101960E94E51783E090E02C
:100D10000197F1F761E0CE0101960E94E51783E2A9
:100D200090E00197F1F760E0CE0101960E94E5178F
:100D300060E08A810E940B228A8190E0FC01E658E3
:100D4000F84F6491FC01E955F84FE491F0E0EE0FA3
:100D5000FF1FEF5BF84F8591949108EB16E520E0BB
:100D600030E0462F0E94CB29611571058105910560
:100D700041F0AB01BC014F5F5F4F6F4F7F4F7F7002
:100D800003C040E050E0BA017A018B01BA01C8010A
:100D90000E9421356B877C878D879E8708C06B8575
:100DA0007C858D859E850E9483307B018C01B701F7
:100DB000C8010E94213520E030E048E652E40E945C
:100DC0001130CDC23090A2051092A20580916B0522
:100DD00000935F038093810310926003109282035B
:100DE0006BE380E794E00E940D29813009F087C20F
:100DF00080E00E946C25811182C26EE080916B05BB
:100E00000E94BC2710929A058093990500E010E09B
:100E10009091990580919A05981771F00E301105FF
:100E200079F00F5F1F4F80E794E00E94C128F8011E
:100E3000E75DFA4F83ABECCF0E30110509F05FC2CE
:100E4000A0905D05B12CBA2CAA2480915E05A82A39
:100E5000B0924C05A0924B05E0905F05F12CFE2C62
:100E6000EE2480916005E82AF0924E05E0924D054F
:100E70000091610510E0102F002780916205082B7A
:100E80001093500500934F0540902F05509030056A
:100E900060903105709032056091650570E0762FA5
:100EA000662780916605682B072E000C880B990B2E
:100EB0000E942135209151053091520540915305F2
:100EC000509154050E94322FA30192010E941130CB
:100ED00060933F05709340058093410590934205D0
:100EE0006091670570E0762F662780916805682B12
:100EF000072E000C880B990B0E9421352091550577
:100F00003091560540915705509158050E94322F57
:100F1000A30192010E941130609343057093440530
:100F200080934505909346056091690570E0762FA2
:100F3000662780916A05682B072E000C880B990B99
:100F40000E9421352091590530915A0540915B0549
:100F500050915C050E94322FA30192010E94113032
:100F600060934705709348058093490590934A051F
:100F7000B701FF0C880B990B0E9421352B013C0116
:100F80009B01AC010E9480356F8B788F898F9A8F7F
:100F9000B801110F880B990B0E9421356B017C0160
:100FA0009B01AC010E9480356B8F7C8F8D8F9E8F53
:100FB0009B01AC016F89788D898D9A8D0E94332FAA
:100FC0000E949B319B01AC01B501BB0C880B990BB6
:100FD0002CAB3BAB4AAB59AB0E9421354B015C01BA
:100FE0002CA93BA94AA959A90E94B22F20E030E0C0
:100FF00044E353E40E9480352AED3FE049E450E4A5
:101000000E9411306F8F78A389A39AA3A501940140
:10101000C501B4010E9480354B015C012B8D3C8DD4
:101020004D8D5E8D0E94332F0E949B319B01AC0140
:10103000C301B2010E94B22F20E030E044E353E448
:101040000E9480352AED3FE049E450E40E941130CF
:101050006B8F7C8F8D8F9E8F2F89388D498D5A8D08
:10106000C501B4010E94332F0E949B319B01AC014A
:10107000C701B6010E94B22F20E030E044E353E400
:101080000E9480352AED3FE049E450E40E9411308F
:101090006F8B788F898F9A8F0E94CA230091EC0101
:1010A0001091ED012091EE013091EF01601B710B69
:1010B000820B930B0E941F3520E030E04AE754E496
:1010C0000E9411306B017C010E94CA236093EC01E5
:1010D0007093ED018093EE019093EF0180914F05A5
:1010E000909150051816190614F00C9409132091CC
:1010F0004305309144054091450550914605C7018F
:10110000B6010E9480359B01AC016091330570915E
:10111000340580913505909136050E94322F6093F9
:1011200033057093340580933505909336052091EF
:101130003F05309140054091410550914205C7015E
:10114000B6010E9480359B01AC016091370570911A
:1011500038058091390590913A050E94332F6093AC
:101160003705709338058093390590933A0520919F
:101170004705309148054091490550914A05C701FE
:10118000B6010E94803520913B0530913C0540918D
:101190003D0550913E050E94332F4B015C0120E03C
:1011A00030E044EB53E40E9411300E94B93020E05B
:1011B00030E044EB53E40E9480359B01AC01C50153
:1011C000B4010E94322F4B015C0120E030E044E387
:1011D00053E40E943831181614F40C94431380928F
:1011E0003B0590923C05A0923D05B0923E0520E063
:1011F00030E040E05FE3C701B6010E94332F9B015E
:10120000AC0160E070E080E09FE30E9411306B0170
:101210007C019B01AC0160E070E080E89FE30E94EC
:10122000322F4B015C012091330530913405409100
:10123000350550913605C701B6010E9480352B0156
:101240003C01A50194016F8D78A189A19AA10E940A
:1012500080359B01AC01C301B2010E94332F609322
:1012600033057093340580933505909336052091AE
:101270003705309138054091390550913A05C7013D
:10128000B6010E9480352B013C01A50194016B8DB4
:101290007C8D8D8D9E8D0E9480359B01AC01C3019C
:1012A000B2010E94332F6093370570933805809305
:1012B000390590933A0520913B0530913C054091CA
:1012C0003D0550913E05C701B6010E9480356B0176
:1012D0007C01A50194016F89788D898D9A8D0E947A
:1012E00080359B01AC01C701B6010E94332F60938A
:1012F0003B0570933C0580933D0590933E0521E0AE
:10130000321209C060913305709134058091350522
:101310009091360524C032E0331209C06091370540
:10132000709138058091390590913A0518C083E095
:10133000381209C060913B0570913C0580913D05D4
:1013400090913E050CC060E070E0CB0108C0609158
:10135000DC057091DD058091DE059091DF050E942E
:101360007E29D6C1809127058617D1F085E295E0C8
:101370000E94D51760E0809125050E940B2260E055
:10138000809126050BC080912705861749F085E2DC
:1013900095E00E94D51760E0809125050E940B2200
:1013A0000E94AD27B3C161E088850E94DB21110F47
:1013B00089850E94B221892B09F01F5F60E0888532
:1013C0000E94DB21FA94F110EECF60E088850E9444
:1013D000DB2161E088850E94DB2160E088850E9436
:1013E000DB2161E089850E940B22CE0101960E94DB
:1013F0009A18ECC080912705861749F085E295E0A0
:101400000E94D51760E0809126050E940B2260E0C3
:10141000809126050E940B22809126050E94B22110
:1014200021E0892B09F420E0822F70C10091A205F0
:101430001092A205CE0101960E94F51789818F8333
:101440008A818E8361E00E940B2261E08F810E947D
:101450000B2281E88D8361E08E810E94DB2161E0B7
:101460008F810E94DB2160E08F810E94DB2160E0A0
:101470008E810E94DB2118E091E8F92E60E08E81D8
:101480000E94DB21F7FE02C061E001C060E08F81B5
:101490000E94DB21FF0C61E08E810E94DB21115054
:1014A00069F760E08E810E94DB2161E08E810E94FD
:1014B000DB2160E08E810E94DB2161E08F810E9450
:1014C000DB2160E08F810E940B2210E1E12CF12CE6
:1014D00061E08E810E94DB21EE0CFF1C8F810E9457
:1014E000B221892B19F09FEFE91AF90A60E08E8189
:1014F0000E94DB21115061F760E08E810E94DB21A8
:1015000061E08E810E94DB2160E08E810E94DB2100
:1015100061E08F810E940B22F986E88660E08E816F
:101520000E94DB2160E08F810E94DB2161E08E81DF
:101530000E94DB2161E08F810E94DB2188859985F3
:101540008F3FABEF9A07B9F1B8F48F3FEFED9E07ED
:1015500071F148F48F3F2FE79207B9F18F3F9F4B0E
:10156000A9F512E033C08F3FAFEE9A0711F18F3F1C
:10157000974F61F515E02AC08F37EFEF9E07F9F01E
:1015800048F48F3F2DEF9207C1F08F3F9E4FF1F44B
:1015900018E01CC08F3DAFEF9A0799F08F3EBFEF68
:1015A0009B0789F08F3B9F4F89F41AE00FC013E02F
:1015B0000DC014E00BC016E009C017E007C019E029
:1015C00005C01BE003C01CE001C011E0612F70E00A
:1015D00080E090E00E941F356B017C01602F70E07D
:1015E00080E090E00E9421359B01AC01C701B6016B
:1015F0007EC02191DA012D93AD01A817B907C9F773
:1016000067E0CE0101960E9463278E010F5E1F4F97
:101610009E012F5F3F4F49E0B9018CE00E94A12657
:1016200080E6898387E08A83AFEDB4E0ED2DFE2D5F
:10163000CE0109962D912193E817F907D9F78091EA
:10164000A60489878091A7048A878091A8048B8744
:101650008091A9048C878E010F5E1F4F9E012F5F22
:101660003F4F4CE0B9018EE00E94A12681112CC0B1
:1016700088E00E940C2683FF27C080E38093AB04A0
:1016800084E08093AC044DEA54E062E08BEA94E09D
:101690000E946327005111092BEA34E044E0B901AC
:1016A0008CE00E94A12681110FC089819A81803926
:1016B000910551F42DE730E040E050E067E174E03F
:1016C0008BEC94E00E947F196091B30470E080E09D
:1016D00090E00E941F354B015C016F2D70E080E0AF
:1016E00090E00E9421359B01AC01C501B4010E942C
:1016F0001A35882321F060E070E0CB0104C060E07F
:1017000070E080E89FE30E948A30862F0E94B4290F
:1017100080E294E00E94BC1F83E893E00E94BC1F1B
:10172000CBC76091A1051092A105193C09F466C3CD
:1017300028F51E3109F493C078F4193009F4A4C0D7
:1017400020F4183009F47AC161C71A3009F4E9C2EB
:101750001B3009F426C25AC7123309F43CC338F4CB
:10176000103209F466C0123209F416C34FC7153699
:1017700009F475C0163609F472C048C71E3C09F456
:101780007DC408F03FC01B3C09F455C308F43BC3BB
:101790001C3C09F46CC31D3C09F038C787E00E946B
:1017A0005A292C0189E00E945A295C018BE00E9491
:1017B0005A294C018DE00E945A293C018FE00E9479
:1017C0005A29988F8F8B81E10E945A291C0183E14D
:1017D0000E945A297C0183019401A501B20183EF83
:1017E00094E00E94551481012F89388DA301B40122
:1017F00083EF94E00E94551485019201A1016F8945
:10180000788D37C4113D09F440C638F41F3C09F403
:1018100051C4103D09F4F0C4F9C6123D09F464C680
:10182000153D09F0F3C66091A2051092A20570E083
:10183000E9C680912705861721F085E295E00E9490
:10184000D5171091A2051092A20561E0809125059F
:101850000E940B22612F70E0809125059AC2809131
:101860002705861721F085E295E00E94D517809123
:10187000A2051092A20561E0811101C060E085E23D
:1018800095E00E94E517C2C6CE0101960E944C1950
:101890008091A2051092A2058093E8018091A30592
:1018A0001092A3058093E9018091A4051092A405EC
:1018B0008093EA018091A5051092A5058093EB0124
:1018C0008090E8019090E901A090EA01B090EB01CE
:1018D000198A1A8A1B8A20E030E0A901C501B401E7
:1018E0000E941A3587FF09C0B7FAB094B7F8B094D0
:1018F00081E2898B3324339401C0312C02E010E063
:10190000212C17FD48C0B8016F5F7F4F072E000CD8
:10191000880B990B0E9421359B01AC0160E070E0BF
:1019200080E291E40E9445316B017C019B01AC0196
:10193000C501B4010E9411300E94B9302B013C0155
:10194000B801012E000C880B990B0E9421359B01D8
:10195000AC0160E070E080E291E40E9445316F8B61
:10196000788F898F9A8FA7019601C301B2010E94D7
:1019700080359B01AC01C501B4010E94322F2F8933
:10198000388D498D5A8D0E9411300E94B9300E94C5
:101990008330CB0122C0CC24DD24C01AD10AD4016B
:1019A000FA2DEB2DE12CF12C20E030E040E251E467
:1019B000BD018F2F9E2F0E948035DB01F82FE92F6C
:1019C0002FEFE21AF20AEC14FD0471F70E94833043
:1019D000CB016AE070E00E94FD2E181619062CF06B
:1019E000002319F0222011F10CC001110AC0E1E11D
:1019F000F0E0EC0FFD1FE30DF11D60E1680F608367
:101A000007C0E1E1F0E0EC0FFD1FE30DF11D808365
:101A1000339433E0331208C0BE016F5E7F4FCE01B6
:101A200001960E94EE18F2C5222423940150110958
:101A30000B3F8FEF180709F064CFEECFCE01019670
:101A40000E94F5178981282F30E0F901E658F84FF8
:101A5000E491ED87F901E955F84FE491F0E0EE0FDC
:101A6000FF1FE756F84F259134913A87298761E0A7
:101A70000E940B2280E091E09E838D8380E093E0C2
:101A80000E94DE3298878F83892B21F48FEB91E0BF
:101A90000E94EA3480E090E04D815E81BA01660FD9
:101AA000771F640F751F2F8138856817790730F00D
:101AB000F901E80FF91F10820196EECF8091A2057F
:101AC0001092A2057091A3051092A305A091A40500
:101AD0001092A4056091A5051092A50590E00097CD
:101AE000D1F420E030E04D815E814217530758F178
:101AF000EF81F885E80FF91FA083EF81F885E80FE3
:101B0000F91F7183EF81F885E80FF91F62832F5F5A
:101B10003F4F0396E8CF019748175907A0F0AC0153
:101B2000440F551F840F951FF901E80FF91FA0837B
:101B3000EF81F885E80FF91F71832F813885F9014E
:101B4000E80FF91F6283A985BA852D858D819E8155
:101B5000AC01440F551F840F951F7F8168855FB7C7
:101B6000F8944C91322F30953423242BE72FF62F05
:101B70008E0F9F1FE817F90781F0419168E02C93C1
:101B800000C047FF3C93440F00C000C000C008F4F1
:101B90003C9300C06A9599F7EDCF5FBF8F81988520
:101BA0002EC580912705861709F45AC085E295E075
:101BB0000E94D51710912505809185058C3008F07D
:101BC0004FC061E0812F0E940B22E0918505AE2F6E
:101BD000B0E0CD01880F991FA80FB91FA358BB4FC4
:101BE0001F778C918078182B1C9310928605109289
:101BF00087058E2F6CE00E94F12E9CE0899FB0013A
:101C0000112440E050E09A01260F371FD901AA0F96
:101C1000BB1F2A0F3B1FD901A358BB4F9C9197FDB7
:101C200013C04F5F5F4F4C30510569F781110CC0F5
:101C30001092900082E08093910010929500109293
:101C4000940088BB809371008E2F90E0FC01EE0F12
:101C5000FF1FE80FF91FE358FB4F808180688083E6
:101C6000A091A2051092A205A53B08F0CFC49091C7
:101C7000870580918605F0908505BBE0BF1508F4C7
:101C8000C5C428E532E06901C91AD10897FDD3948B
:101C9000CC0CDD1CCC0CDD1C08E810E0081B110985
:101CA00087FD1395000F111F000F111F4801012E12
:101CB000000CAA08BB08A6010D2C000C660B770BC4
:101CC0009A01AB01281939094A095B09B0E00E9461
:101CD0005D3624EB30E040E050E00E943E36DA0111
:101CE000C901880D991DAA1DBB1D801791072CF0F5
:101CF0008C01C816D9060CF4860102501109000F98
:101D0000111F2FB7F8948F2D90E0FC01EE0FFF1FED
:101D10008E0F9F1FFC01E358FB4F128301832FBFDF
:101D200075C4CE0101960E94F5178A818D83898141
:101D30008E838E8161E00E940B228D8161E00E9482
:101D40000B2287E00E945A298F3F910519F014F069
:101D50008FEF90E08C0181309F4F14F401E01FEF72
:101D60008F8198858017910709F450C418870F83D5
:101D70008D8117FD06C061E00E94DB218E81B801D4
:101D800008C060E00E94DB218E8166277727601BF8
:101D9000710B0E9447223AC486E00E945A298C01A6
:101DA00088E00E945A291016110654F49C01990FDC
:101DB000440B550BB8018CE695E00E947F1926C4B0
:101DC00061E080917C040E940B2260E080917C04A1
:101DD0000E94DB211BC40E94CA230E941F3520E001
:101DE00030E04AE754E40E9411306093E0057093BC
:101DF000E1058093E2059093E30508C487E00E9423
:101E00005A29BC01FFC387E00E945A296C0189E06E
:101E10000E945A295C018BE00E945A294C018DE0F6
:101E20000E945A298C018FE00E945A297C0194015A
:101E3000A501B6011EC187E00E945A296C0189E004
:101E40000E945A295C018BE00E945A294C018DE0C6
:101E50000E945A298C018FE00E945A297C0194012A
:101E6000A501B60183EF94E00E940614CFC387E07A
:101E70000E945A296C0189E00E945A295C018BE07A
:101E80000E945A294C018DE00E945A297C0184014C
:101E900081E090E03C016818790888279927881923
:101EA00099099C01220F331F3C8F2B8FE091F30483
:101EB000F091F404A501480D591D0480F581E02D31
:101EC0009701B60183EF94E00995E091F304F09156
:101ED000F404A501481959090480F581E02D970102
:101EE000B60183EF94E00995E091F304F091F404D6
:101EF000B601680D791D0480F581E02D9701A501DB
:101F000083EF94E00995E091F304F091F404B601B5
:101F1000681979090480F581E02D9701A50183EF07
:101F200094E00995812C912C81E090E098A38F8F0B
:101F3000801691060CF06AC377FC09C001501109A4
:101F4000AB8DBC8D1296BC8FAB8F6A0E7B1EBFEF24
:101F50008B1A9B0AEF8DF8A13296F8A3EF8F6E0EC5
:101F60007F1E14012C0C3D1CE091F304F091F4044D
:101F70000480F581E02D97012501400E511EA2013C
:101F8000B10183EF94E00995960128193909388F3A
:101F90002F8BE091F304F091F4040480F581E02D9F
:101FA0009701A2016F89788D83EF94E00995E09104
:101FB000F304F091F4040480F581E02D97012501EC
:101FC000401A510AA201B10183EF94E00995E09112
:101FD000F304F091F4040480F581E02D9701A2014F
:101FE0006F89788D83EF94E0099524014A0C5B1C7E
:101FF000E091F304F091F4040480F581E02D970161
:10200000A2011601200E311EB10183EF94E0099563
:10201000E091F304F091F4040480F581E02D970140
:10202000A201C601801B910B988F8F8BBC0183EF9F
:1020300094E00995250148185908E091F304F091BE
:10204000F4040480F581E02D9701A201B10183EF32
:1020500094E00995E091F304F091F4040480F58193
:10206000E02D9701A2016F89788D83EF94E00995A7
:102070005FCF83EF94E00E945514C8C287E00E94AE
:102080005A296C0189E00E945A295C018BE00E9468
:102090005A294C018DE00E945A298C018FE00E9440
:1020A0005A297C019401A501B60183EF94E00E94B6
:1020B0001621ACC287E00E945A294C0189E00E9497
:1020C0005A292C018BE00E945A298C018DE00E9434
:1020D0005A293C017801E091F304F091F40498014D
:1020E000220F331F2F5F3F4FA201401B510B008473
:1020F000F185E02D8C01B40183EF94E0099581E036
:1021000090E06C01CE18DF08882799278E199F0967
:10211000DC01AA0FBB1FBC8FAB8FA12CB12C2224DA
:102120002394312CAE14BF040CF070C2D7FC0AC04B
:10213000B1E0EB1AF108EB8DFC8D3296FC8FEB8F42
:10214000CE0EDF1EFFEFAF1ABF0A22E0220E311CB7
:10215000C20CD31CC701880F991FDC011196BCA3C8
:10216000ABA3E091F304F091F404B501680D791D7F
:102170000084F185E02D83019D01C2018E199F0924
:10218000988F8F8BAC0183EF94E00995D201AA1947
:10219000BB09B8A3AF8FE091F304F091F40400847D
:1021A000F185E02D9101AD01B4016E0D7F1D83EF2E
:1021B00094E00995E091F304F091F404B4016A19F4
:1021C0007B090084F185E02D2BA13CA14F89588D1E
:1021D00083EF94E00995E091F304F091F404008416
:1021E000F185E02D91014F8D58A1B4016E197F0941
:1021F00083EF94E0099596CF87E00E945A29382F03
:1022000089E09CAB3BAB0E945A293C018BE00E94C9
:102210005A298B8F9F8F8DE00E945A292C018FE0C5
:102220000E945A29582F81E19AAB59AB0E945A2932
:102230008C0183E10E945A29988F8F8B180159A92C
:10224000652F4AA9742F4201CB8CDF8C53013BA927
:10225000E32E2CA9F22E461457042CF4061517056C
:102260000CF023C209C004151505FCF4520143010A
:10227000EB8CFF8CC32ED22E081519055CF03A2D7D
:102280002B2D54014101232E322E3E2D2F2D760170
:102290006B0109C09A2D8B2D5801292E382E3E2D09
:1022A0002F2DE52EF42E632F722FA214B30441F5C7
:1022B000CE14DF0454F03E2D2F2DEC14FD0414F445
:1022C0003C2D2D2D6701E32EF22E6C157D052CF093
:1022D000E616F7060CF47B01B601E091F304F091E9
:1022E000F4049701261B370B2F5F3F4F0284F385C1
:1022F000E02D0F89188DA50183EF94E0099586C123
:10230000F601EE19FF09FCA7EBA794012A193B0976
:102310003EA72DA7CB018E199F099C8F8B8FD101D2
:10232000AA19BB09BEA3ADA3FB01EC19FD09F8A7CF
:10233000EFA391012819390938AB2FA78214930410
:1023400029F0C40101979AA789A702C09AA689A675
:1023500025011CA21BA218A21F8EA9A5BAA5A4150F
:10236000B5050CF440C08F8D98A16DA57EA50E9487
:10237000FD2E3701660E771E8BA19CA16DA17EA15B
:102380000E94FD2E6E0D7F1DAF8DB8A1EBA5FCA5A3
:10239000AE0FBF1FB8A3AF8F2BA13CA18B8D9C8D1F
:1023A000280F391F3CA32BA3661577052CF4962D17
:1023B000872D3B01692F782FE091F304F091F4040D
:1023C000661977099B012F5F3F4F0284F385E02D4B
:1023D0000F89188DA201B30183EF94E009959FEF57
:1023E000491A590ABACFC20188199909EFA1F8A56B
:1023F000E89F4001E99F900CF89F900C1124C201C6
:102400008A199B092B8D3C8D289F3001299F700CC8
:10241000389F700C1124241435040CF4F7C0C40147
:102420006FA578A90E94FD2E5601A60EB71EC30106
:102430006DA17EA10E94FD2E6E0D7F1D8FA198A51E
:10244000880E991EAB8DBC8D6A0E7B1E6A157B05AE
:102450002CF49A2D8B2D5B01692F782FE091F304DA
:10246000F091F4046A197B099B012F5F3F4F0284AE
:10247000F385E02D0F89188DA201B50183EF94E05B
:102480000995BFEF4B1A5B0AC6CF87E00E945A2915
:102490005C0189E00E945A294C01C090A605109267
:1024A000A6058CE00E945A298C018EE00E945A29D0
:1024B0002091AB051092AB054091FB045091FC04B8
:1024C000A416B5060CF0A2C04091FD045091FE0484
:1024D000841695060CF09AC07C01A401B50183EF27
:1024E00094E00E94452492C087E00E945A296C0122
:1024F00089E00E945A293C015090A6051092A60539
:102500008CE00E945A295C018EE00E945A294C01FD
:102510001A8A198A1C8A1B8A1E8A1D8A40E050E08A
:102520006DED71E0CE0141960E9486280BEA15E020
:1025300062E1462E400EF801F080D8011D928D0117
:102540006F2D80E294E00E943720F1102AC0BE0176
:102550006F5E7F4F80E294E00E94C71F68E080E2D8
:1025600094E00E943720BE016F5E7F4F80E294E0CE
:102570000E94C71F69E080E294E00E9437201A821F
:1025800019821C821B821E821D8269897A896115CB
:10259000710529F14D895E89CE0101960E94862838
:1025A0001EC0F9821A82ED88FE88BFEFEB1AFB0A83
:1025B000B701CE0141960E94E61C882369F0298963
:1025C0003A898D899E89BE016F5F7F4F820F931F6D
:1025D0000E94E334FE8AED8A4012ADCFB8CFFE01EF
:1025E00031967F0184019501452DB301C6010E94FA
:1025F0000C2589819A810E94733389899A890E9466
:10260000733304C083EF94E00E94AF200E94BD2981
:1026100053C02091430530914405409145055091A8
:102620004605C701B6010E9480359B01AC0160914F
:1026300033057091340580913505909136050E94DF
:10264000332F609333057093340580933505909351
:10265000360520913F05309140054091410550914C
:102660004205C701B6010E9480359B01AC01609113
:102670003705709138058091390590913A050E948F
:10268000322F0C94AF0820E030E044EB53E4C50156
:10269000B4010E94322F60933B0570933C058093F8
:1026A0003D0590933E050C94F708E52EF42E632F1C
:1026B000722F13015801E3CDE4960FB6F894DEBFF4
:1026C0000FBECDBFDF91CF911F910F91FF90EF9083
:1026D000DF90CF90BF90AF909F908F907F906F9042
:1026E0005F904F903F902F9008954C7F38E0439F2C
:1026F000C001112430E043E0359527954A95E1F774
:10270000822B932B687F962B08950895EF92FF926A
:102710000F931F93DC01ED91FC9111971A960D9187
:102720001C911B9718962D913C9119970684F7855B
:10273000E02D7B0140E050E060E070E009951F91E2
:102740000F91FF90EF9008956F927F928F929F92DA
:10275000AF92BF92CF92DF92EF92FF920F931F93AF
:10276000CF93DF936C015A014801EB013B01620EEC
:10277000731EC615D70574F4D601ED91FC91008443
:10278000F185E02D87019401A501BE01C6010995DF
:102790002196EFCFDF91CF911F910F91FF90EF9096
:1027A000DF90CF90BF90AF909F908F907F906F9071
:1027B0000895EF92FF920F931F93DC01ED91FC912E
:1027C000260F371F215031090680F781E02D78014F
:1027D0008A0109951F910F91FF90EF900895EF9254
:1027E000FF920F931F937801DC01ED91FC91240F70
:1027F000351F8901015011090680F781E02D9B01E9
:1028000009951F910F91FF90EF9008956F927F921D
:102810008F929F92AF92BF92CF92DF92EF92FF92F0
:102820000F931F93CF93DF93EC014B015A01690182
:102830003801E881F9810284F385E02D870109954B
:10284000E881F981A501460D571D415051090284C7
:10285000F385E02D9601B401CE010995E881F98157
:102860000084F185E02D9301A501B401CE01099505
:10287000E881F981C80CD91CB60161507109008446
:10288000F185E02D9301A501CE010995DF91CF914E
:102890001F910F91FF90EF90DF90CF90BF90AF907E
:1028A0009F908F907F906F9008952F923F924F92BC
:1028B0005F926F927F928F929F92AF92BF92CF92D0
:1028C000DF92EF92FF920F931F93CF93DF9300D08D
:1028D0001F92CDB7DEB74C017B836A836A01590131
:1028E00017019801241B350B37FF03C03195219543
:1028F0003109C5014A815B81841B950B97FF03C099
:1029000091958195910951E059838217930714F0AD
:1029100019820BC09A2D8B2D5801092F182F9A81DF
:102920008B81DB82CA82C92ED82E8A819B81A81610
:10293000B9065CF49C2D8D2D6801092F182F9A8102
:102940008B81BB82AA82A92EB82E2501AA81BB81C8
:102950004A1A5B0A38016C187D0877FE03C071942F
:1029600061947108720157FE03C0BFEFEB1AFB0AB6
:10297000F594E794C016D1061CF00FEF1FEF1FC0AF
:1029800001E010E01CC0D401ED91FC91B9810480FC
:10299000F581E02D9101BB23C1F04A815B81B60135
:1029A000C4010995E618F708F7FE04C0C00ED11E51
:1029B000E40CF51CEA81FB813196FB83EA834A81B2
:1029C0005B81A416B506FCF604C0A6016A817B8172
:1029D000E7CF0F900F900F90DF91CF911F910F9144
:1029E000FF90EF90DF90CF90BF90AF909F908F902F
:1029F0007F906F905F904F903F902F90089585ED5E
:102A00008093BC008091BC0084FDFCCF10925E03DB
:102A10000895CF92EF92FF920F931F93CF93DF937E
:102A2000EC016A3059F42C898E859F8538E0239F0C
:102A3000800D911D11249F878E8741C06D3009F450
:102A400040C0262FCC88EA88FB88088919894E85E2
:102A50005F856C857D85888599856817790744F43D
:102A60008A859B85481759071CF4CE010E9445248E
:102A70004C89242F30E08C859D8556E0459F800D44
:102A8000911D11249D878C874E894423D1F04AEFF4
:102A90004203B001439F700D112448855985460FAC
:102AA000571F481759076CF483E0220F331F8A958C
:102AB000E1F78E859F85280F391F3F872E871D865A
:102AC0001C8681E090E0DF91CF911F910F91FF90E4
:102AD000EF90CF9008951F920F920FB60F9211248E
:102AE0002F933F934F935F936F937F938F939F9316
:102AF000AF93BF93EF93FF938091050387FF05C0CA
:102B000010929500109294001BC020910503022E94
:102B1000000C330B8091A10490E02817390784F44E
:102B200080910503082E000C990BFC01EE0FFF1F8E
:102B30008E0F9F1FFC01E358FB4F808187FD15C05E
:102B4000809105038F5F8093050320910503022E7A
:102B5000000C330B8091A10490E028173907C4F4CE
:102B6000809105038C3064F113C080910503082E19
:102B7000000C990BFC01EE0FFF1F8E0F9F1FFC0135
:102B8000E358FB4F808160E08F770E94DB21D8CF34
:102B90008091940090919500049680349C4918F49B
:102BA00080E49CE905C08091940090919500049682
:102BB00090939900809398008FEF809305033BC01A
:102BC000209194003091950080910503082E000C0F
:102BD000990BFC01EE0FFF1F8E0F9F1FFC01E358A6
:102BE000FB4F81819281820F931F90939900809374
:102BF000980080910503082E000C990BFC01EE0F44
:102C0000FF1F8E0F9F1FFC01E358FB4F808187FF42
:102C100012C080910503082E000C990BFC01EE0FE9
:102C2000FF1F8E0F9F1FFC01E358FB4F808161E067
:102C30008F770E94DB21FF91EF91BF91AF919F9120
:102C40008F917F916F915F914F913F912F910F9055
:102C50000FBE0F901F9018958EBD00000DB407FE9B
:102C6000FDCF8EB50895CF93DF93EC01862FEDA1B4
:102C7000FEA120819FA5922B9083EBA1FCA1208136
:102C80009EA59095922390830E942C16EBA1FCA107
:102C900090818EA5892B8083DF91CF910895CF936A
:102CA000DF93EC01862FEDA1FEA120819FA59095D9
:102CB00092239083EBA1FCA120819EA59095922365
:102CC00090830E942C16EBA1FCA190818EA5892BEC
:102CD0008083DF91CF910895EF92FF920F931F931E
:102CE000CF93DF9300D0CDB7DEB77C01162F6AE219
:102CF00029834A830E944F1660E0C7010E94331661
:102D0000F70180A9612F680FC7010E94331660E0A8
:102D1000C7010E943316F70180A92981622F680F2D
:102D2000C7010E9433166BE2C7010E944F1660E094
:102D3000C7010E943316F70181A94A81642F680FE9
:102D4000C7010E94331660E0C7010E943316F701E5
:102D500081A9602F680FC7010E9433166CE2C7017A
:102D60000F900F90DF91CF911F910F91FF90EF90F7
:102D70000C944F16CF92DF92EF92FF920F931F9316
:102D8000CF93DF93EC0169017801888599856817F5
:102D900079070CF04BC02A853B85421753070CF08E
:102DA00045C09B012C0D3D1D821793071CF46C013F
:102DB000C61AD70A2FEF260F2C0D042FCE010E9422
:102DC0006C168E8D823091F49701207E3770C7018A
:102DD000982F8827990F990F990F822B932BEF2CFF
:102DE000FF24E694E694E694E82AF92AEDA1FEA1F0
:102DF00080819FA5982B9083EBA1FCA120819EA5AB
:102E0000909592239083C114D10451F08F2D0E948C
:102E10002C168E2D0E942C1681E0C81AD108F3CFF3
:102E2000EBA1FCA190818EA5892B8083DF91CF91AE
:102E30001F910F91FF90EF90DF90CF900895CF9268
:102E4000DF92EF92FF920F931F93CF93DF93EC01EA
:102E50006901780188859985681779070CF04CC05D
:102E60008A859B85481759070CF046C09A012C0D9E
:102E70003D1D821793071CF46C01C41AD50A0FEF8D
:102E8000040F0C0D262FCE010E946C168E8D823001
:102E900091F49701207E3770C701982F8827990FEA
:102EA000990F990F822B932BEF2CFF24E694E69435
:102EB000E694E82AF92A0F2DEDA1FEA180819FA5B5
:102EC000982B9083EBA1FCA120819EA59095922345
:102ED0009083C114D10451F0802F0E942C168E2DA6
:102EE0000E942C1681E0C81AD108F3CFEBA1FCA1F7
:102EF00090818EA5892B8083DF91CF911F910F91B7
:102F0000FF90EF90DF90CF900895EF92FF920F9394
:102F1000CF93DF93EC01790177FD41C088859985D6
:102F200068177907E4F557FD3AC08A859B854817ED
:102F30005907ACF501E0040F21E0260FCE010E94F5
:102F40006C16EDA1FEA190818FA5892B8083EBA14A
:102F5000FCA190818EA58095892380838E8D8230FF
:102F600091F49701207E3770C701982F8827990F19
:102F7000990F990F822B932BEF2CFF24E694E69464
:102F8000E694E82AF92A8F2D0E942C168E2D0E9495
:102F90002C16EBA1FCA190818EA5892B8083DF915B
:102FA000CF910F91FF90EF900895DC01E62FF0E0B4
:102FB000EE0FFF1FE956FE4F80818C9381811196A1
:102FC0008C93119712966C9308951F93CF93DF9370
:102FD000EC01162F61E088810E940B22612F88810D
:102FE000DF91CF911F910C94DB21DC01E62FF0E003
:102FF000EE0FFF1FE956FE4F80818C938181119661
:103000008C93119712966C9308951F920F920FB69E
:103010000F9211242F933F934F935F936F937F935E
:103020008F939F93AF93BF93EF93FF93809137025A
:103030000E94B22120913A0230913B022F5F3F4F14
:1030400030933B0220933A0290910403943618F097
:1030500095E090933802909138029330B9F018F4CB
:10306000923039F056C0943051F1953009F44BC08C
:1030700050C081114EC080913A0290913B0284363B
:10308000910508F442C0109204031BC0813009F07E
:1030900040C0E09104038E0F80930403F0E0809120
:1030A0003A0290913B02EE0FFF1FE95CFD4F9683C1
:1030B000858310923B0210923A0284E021C0811174
:1030C00017C0E091040381E08E0F80930403F0E0C9
:1030D00080913A0290913B02EE0FFF1FE95CFD4F99
:1030E0009683858310923B0210923A0283E008C0D7
:1030F00080913A0290913B028536910550F085E02F
:103100008093380206C0811104C010923B021092D5
:103110003A02FF91EF91BF91AF919F918F917F9173
:103120006F915F914F913F912F910F900FBE0F9034
:103130001F901895CF93DF93EC0160E08F810E9480
:10314000DB2160E088850E94DB2161E08F810E94A5
:10315000DB2161E08885DF91CF910C94DB21CF9357
:10316000DF93EC0161E08F810E94DB2161E08885C3
:103170000E94DB2160E088850E94DB2160E08F8176
:10318000DF91CF910C94DB210F931F93CF93DF93AB
:10319000EC01062F18E060E08F810E94DB2107FF21
:1031A00002C061E001C060E088850E94DB21000F61
:1031B00061E08F810E94DB21115069F760E08F810F
:1031C0000E94DB2161E08F810E94DB2160E08F8122
:1031D000DF91CF911F910F910C94DB21CF92DF9261
:1031E000EF92FF920F931F93CF93DF9300D000D005
:1031F000CDB7DEB78C01FB018081898381818A8311
:1032000082818B83CE0101967C01DC0190E283E018
:103210008E0D2C91223208F09C93EC91F0E0E85650
:10322000FE4FE491ED938A13F4CFC8010E94AF18CA
:1032300068E4C8010E94C41861E0C8010E94C41873
:10324000C8010E949A18C12CD12CC8010E94AF1845
:10325000B601660F771F6866C8010E94C418F7019F
:1032600061917F01C8010E94C418C8010E949A1888
:10327000FFEFCF1ADF0A83E0C816D10431F70F90B1
:103280000F900F900F90DF91CF911F910F91FF90B2
:10329000EF90DF90CF9008950F931F93CF93DF931C
:1032A00000D000D0CDB7DEB78C010E94F517F80131
:1032B000808180878181878361E00E940B2261E0A9
:1032C000F80180850E940B2288E4F801848388E657
:1032D000858381E0868380E289838A838B838C83E4
:1032E000BE016F5F7F4FC8010E94EE180F900F90D4
:1032F0000F900F90DF91CF911F910F9108952F9212
:103300003F924F925F926F927F928F929F92AF9275
:10331000BF92CF92DF92EF92FF920F931F93CF93C2
:10332000DF9349015A019B0140E050E060E472E400
:103330008FE090E00E943E3669017A01890161E0E8
:1033400080917C040E940B22A8EEB3E0A5019401B9
:103350000E945D364B015C01E601D7FC2196D595B4
:10336000C7951E01220C331C220C331C85E0281A41
:103370003108C12CD12C76012801110F660877087D
:10338000C814D904EA04FB04D8F461E080917C04F9
:103390000E94DB21C230D10518F0C1010197F1F77D
:1033A00060E080917C040E94DB21C230D10518F0DE
:1033B000C1010197F1F7C40CD51CE61CF71CE0CF46
:1033C000DF91CF911F910F91FF90EF90DF90CF9001
:1033D000BF90AF909F908F907F906F905F904F9035
:1033E0003F902F9008951F920F920FB60F921124C5
:1033F0002F933F934F935F936F937F938F939F93FD
:10340000AF93BF93EF93FF938091B900887F80368D
:1034100009F49CC068F5883209F45BC090F48031EF
:1034200009F454C038F4882309F4F6C0883009F44C
:103430004DC0F6C0883109F44CC0803209F45DC03B
:10344000EFC0803409F468C048F4803309F455C0F3
:10345000883309F0E5C080935C03D8C0803509F457
:103460004FC0883509F45DC0883409F0D9C0D6C092
:10347000883909F4C7C0A8F4883709F467C038F45C
:10348000883609F463C0803709F460C0C9C0883841
:1034900009F4B8C0803909F45FC0803809F0C0C0B1
:1034A0005BC0803B09F486C038F4803A09F466C0FA
:1034B000883A09F47FC0B4C0803C09F4A7C0883CB6
:1034C00009F4A4C0883B09F48AC0AAC080913903DA
:1034D00010C090915B0380915A03981770F5E091AA
:1034E0005B0381E08E0F80935B03F0E0E65CFC4FB2
:1034F00080818093BB0085EC86C080935C038EC086
:10350000E0915B0381E08E0F80935B038091BB00B1
:10351000F0E0E65CFC4F808390915B0380915A035E
:103520006EC0E0915B0381E08E0F80935B0380911E
:10353000BB00F0E0E65CFC4F808380915D0381116D
:103540006DC081E08093380384EA61C083E080939A
:103550005E0310923602CFCF80913602803208F09F
:1035600051C0E091360281E08E0F80933602809147
:10357000BB00F0E0EA5EFD4F8083BDCF85EC809319
:10358000BC0010925E0380913602803230F4E091EC
:103590003602F0E0EA5EFD4F10826091360270E084
:1035A000E0911402F091150286E192E009951092E3
:1035B000360236C084E080935E03109213021092AC
:1035C0001202E0911002F09111020995809112020D
:1035D000811105C081E0809312021092F001E09108
:1035E000130281E08E0F80931302F0E0E051FE4F52
:1035F00080818093BB0090911302809112029817F2
:1036000008F479CF85E88093BC000AC085EC8093EC
:10361000BC0010925E0304C010925C030E94FF1471
:10362000FF91EF91BF91AF919F918F917F916F919A
:103630005F914F913F912F910F900FBE0F901F9070
:10364000189540911202262F30E0240F311D2132AF
:103650003105DCF420915E032430C9F4FC0180E0E4
:1036600090E0861758F4309112022191DC01A051AC
:10367000BE4FA30FB11D2C930196F3CF8091120280
:10368000680F6093120280E0089581E0089582E05F
:10369000089540910A0350910B0320910803309143
:1036A000090342175307B4F49091E8009570E1F3D1
:1036B0009091E80092FD19C08093F10080910A0377
:1036C00090910B0301968F739927892B19F48EEF34
:1036D0008093E80080910A0390910B0301969093E8
:1036E0000B0380930A0381E0089580E00895CF9250
:1036F000DF92EF92FF920F931F93CF93DF931F926E
:10370000CDB7DEB7182F062FE42E862F880F8E5FD9
:1037100099830E94491B83E00E94491BF12EC12E10
:103720009981D92E8C2D8F19801798F4F601E7FE18
:1037300002C0849101C080810E94491B182F80E043
:103740000E94491B8123FFEFCF1ADF0A8111EACFC4
:1037500001C081E00F90DF91CF911F910F91FF90F9
:10376000EF90DF90CF900895DF92EF92FF920F934A
:103770001F93CF93DF93D82E8A017B01E40EF51EB1
:10378000EB01CE15DF0571F0D7FE03C0FE01849179
:1037900001C088810E94491B21968111F2CF8FEFD1
:1037A0009FEF01C0C801DF91CF911F910F91FF9052
:1037B000EF90DF900895615030F02091F100FC010E
:1037C00020830196F8CF289884E680931603089505
:1037D000CF92DF92EF92FF920F931F93CF93DF93DD
:1037E0006C017A018B01C0E0D0E0CE15DF0589F0D5
:1037F000D8016D918D01D601ED91FC910190F08180
:10380000E02DC6010995892B11F47E0102C0219695
:10381000ECCFC701DF91CF911F910F91FF90EF90F7
:10382000DF90CF900895FC01918D828D981761F003
:10383000828DDF01A80FB11D5D968C91928D9F5FE7
:103840009F73928F90E008958FEF9FEF0895FC0192
:10385000918D828D981731F0828DE80FF11D858D45
:1038600090E008958FEF9FEF0895FC01918D228DD8
:10387000892F90E0805C9F4F821B91098F7399275D
:10388000089583E893E00E94351C21E0892B09F418
:1038900020E0822F08950F931F93CF93DF931F9201
:1038A000CDB7DEB782E0898342E450E06AEB71E095
:1038B00080E80E94B41B0E947028DC0112960D91D2
:1038C0001C9113970115110569F0D801ED91FC9138
:1038D0000280F381E02DBE016F5F7F4FC801099523
:1038E00097FF07C089810F90DF91CF911F910F91B2
:1038F0000895F80100851185E5CFEF92FF920F93AF
:103900001F93CF93DF93EC0181E0888F9B8D8C8D8B
:10391000981305C0E889F989808185FD24C0F62EB9
:103920000B8D10E00F5F1F4F0F731127E02E8C8D52
:10393000E8120CC00FB607FCFACFE889F98980813C
:1039400085FFF5CFCE010E949121F1CF8B8DFE0135
:10395000E80FF11DE35AFF4FF0820B8FEA89FB89D4
:103960008081806207C0EE89FF896083E889F989D8
:1039700080818064808381E090E0DF91CF911F910E
:103980000F91FF90EF900895CF93DF93EC01888D16
:103990008823C9F0EA89FB89808185FD05C0A88953
:1039A000B9898C9186FD0FC00FB607FCF5CF8081D9
:1039B00085FFF2CFA889B9898C9185FFEDCFCE0123
:1039C0000E949121E7CFDF91CF9108950F931F932C
:1039D000CF93DF93EC0188819981009729F02A81A8
:1039E0003B812617370788F48B016F5F7F4F0E945A
:1039F0000B34009761F0998388831B830A832C81A1
:103A00003D81232B11F4FC01108281E001C080E094
:103A1000DF91CF911F910F9108951F920F920FB6D2
:103A20000F9211248F939F938091E1009091E10078
:103A3000937F9093E10083FF0FC01092E90091E023
:103A40009093EB001092EC0092E39093ED001092B3
:103A5000170398E09093F00082FF20C093E09093CA
:103A6000E9009091F200992319F09AE39093E8000D
:103A700090910603992339F0909106039150909309
:103A80000603992389F190911603992339F09091B7
:103A90001603915090931603992341F184FF10C0AF
:103AA0008091E2008E7E81608093E2008091E1004F
:103AB0008F7E8093E100809197058E7E806111C09A
:103AC00080FF16C08091E2008E7E80618093E200CC
:103AD0008091E1008E7E8093E100809197058E7E3B
:103AE00081608093970504C05D9ACDCF289AD6CF88
:103AF0009F918F910F900FBE0F901F9018951F925E
:103B00000F920FB60F921124CF92DF92EF92FF9295
:103B10000F931F932F933F934F935F936F937F93D5
:103B20008F939F93AF93BF93EF93FF93CF93DF93C5
:103B3000CDB7DEB76C97DEBFCDBF1092E9008091A4
:103B4000E80083FFFAC168E0CE0145960E94DB1BC6
:103B500082EF8093E8008D8987FF05C09091E8008F
:103B600090FFFCCF03C09EEF9093E800982F9076D3
:103B700009F0C6C09E892F89188D91110CC080381C
:103B800029F4809198058093F10002C01092F10011
:103B90001092F10047C1422F50E0512B913051F467
:103BA000811140C14130510509F03CC18091980517
:103BB0008D7F0BC0933061F4811134C141305105C8
:103BC00009F030C1809198058260809398052AC1E0
:103BD000953041F48091E80080FFFCCF206820936D
:103BE000E30020C1963009F05FC0EB8CFC8C109292
:103BF000E90010920B0310920A03123091F5109213
:103C00000903109208030E944B1C99E0BE016F5FEC
:103C10007F4FDB01E92F1D92EA95E9F799831A831B
:103C200091E09E8390EA98879AEF998720910A0302
:103C300030910B03275F3F4F3C832B838D83109282
:103C4000E90010920B0310920A03F0920903E0922C
:103C5000080349E050E080E00E94B41B0E944B1C26
:103C6000E1C0F0920903E09208030E947028DC0191
:103C70001296ED90FC901397E114F10409F4C0C082
:103C8000D701ED91FC910480F581E02DBE016B5EC2
:103C90007F4FC7010995009719F00CF0C3C0C6C04B
:103CA000F701E084F184E8CF973009F4BFC0983081
:103CB00021F481E08093F100B5C0993009F0B2C0E1
:103CC000837009F0B3C0E7E1F1E081E021E036E381
:103CD0009081992361F08093E9002093EB0091910A
:103CE0009093EC003093ED008F5F873089F78EE77B
:103CF0008093EA001092EA008F898093170392C0A4
:103D00008B8D9C8D1092E90010920B0310920A0388
:103D10009093090380930803898D811156C08E8981
:103D20009D89913A59F4813209F080C047E050E012
:103D300064E071E080E00E94B41B74C0913209F02D
:103D400075C0833289F4888D90E0982F88272F8959
:103D5000822BA0E0B0E08093000190930101A0933A
:103D60000201B09303015EC0803269F48091E800E3
:103D700082FFFCCF67E084E091E00E94DB1B8BEFC9
:103D80008093E80006C0823209F04CC08F8980938E
:103D90000B0180919605882319F0EEEFFAE002C03E
:103DA000E0E0F8E08091040190910501A091060106
:103DB000B0910701803B9440A105B10509F088C08E
:103DC00080910B0180FFA0C083C00E947028DC019D
:103DD00012960D911C9113970115110539F1D80117
:103DE000ED91FC910190F081E02DBE016B5E7F4F63
:103DF000C8010995811116C0F80100851185ECCF25
:103E00001130C1F0133091F48F89882309F455C023
:103E10008230E9F440E867E08CE092E00E94771B92
:103E2000882321F08EEF8093E80087C081E28093A1
:103E3000EB0083C08B8D9C8D089711F410930703C2
:103E400080910703811136C064E172E038C081308F
:103E500029F440E86BE080E092E0E0CF833031F776
:103E60000E947028DC011296ED90FC9013978E0151
:103E70000F5F1F4F6801E114F10479F0D701ED9154
:103E8000FC910680F781E02DB801C7010995080F64
:103E9000111DF701E084F184EECFD8011C92F601E8
:103EA00001900020E9F73197BF016C197D0940E0CE
:103EB000C601B4CF66E272E002C06CEF71E061153A
:103EC000710509F4B3CFFB01449150E080E833CF92
:103ED0000FB6F894A8958091600088618093600087
:103EE000109260000FBEA895EE3F2AE0F20739F06D
:103EF0008091FE0A9091FF0A9183808393CF109264
:103F0000FF0A1092FE0A8ECFEE3F8AE0F80731F0EA
:103F1000808191819093FF0A8093FE0A87E797E75B
:103F2000918380839BE088E10FB6F894A8958093F5
:103F300060000FBE9093600075CF6C960FB6F8943A
:103F4000DEBF0FBECDBFDF91CF91FF91EF91BF914B
:103F5000AF919F918F917F916F915F914F913F9121
:103F60002F911F910F91FF90EF90DF90CF900F90C6
:103F70000FBE0F901F901895DC01ED91FC9102800F
:103F8000F381E02D42E050E06BED71E00994DC013B
:103F9000ED91FC91DB0114964D915C9115976D911B
:103FA0007C910280F381E02D09941F920F920FB64D
:103FB0000F9211242F933F934F935F936F937F93AF
:103FC0008F939F93AF93BF93EF93FF9383E893E017
:103FD0000E949121FF91EF91BF91AF919F918F919D
:103FE0007F916F915F914F913F912F910F900FBEF5
:103FF0000F901F9018951F920F920FB60F921124D9
:104000002F938F939F93EF93FF93E0919303F091FE
:1040100094038081E0919903F0919A0382FD12C08C
:10402000908180919C038F5F8F7320919D038217F5
:1040300051F0E0919C03F0E0ED57FC4F958F809399
:104040009C0301C08081FF91EF919F918F912F91EF
:104050000F900FBE0F901F90189580E090E0892B75
:1040600029F00E94411C81110C9400000895CF9307
:10407000DF931F92CDB7DEB76983DC01ED91FC9130
:104080000280F381E02D41E050E0BE016F5F7F4F81
:1040900009950F90DF91CF91089583E08093E90017
:1040A0008091F200882319F08AE38093E800089554
:1040B000FC018485958597FD0BC09FB7F89482E03D
:1040C0008093E9008091F2009FBF90E001960895EF
:1040D0009FB7F89482E08093E9008091F2009FBF3F
:1040E00090E0089590E0FC013197EF30F105B0F5D4
:1040F000EA5AFF4F0C94112F809180008F7703C0F4
:10410000809180008F7D8093800008958091800051
:10411000877FF9CF84B58F7702C084B58F7D84BD4A
:104120000895809190008F7707C0809190008F7DD7
:1041300003C080919000877F8093900008958091C4
:10414000C0008F7703C08091C0008F7D8093C00036
:1041500008958091C200877F8093C2000895EF92F6
:10416000FF920F931F93DC01ED91FC9111971A962A
:104170000D911C911B9718962D913C9119970684CF
:10418000F785E02D7B0140E050E060E070E00995AC
:104190001F910F91FF90EF900895CF93DF931F929F
:1041A000CDB7DEB7FC018485958597FD05C02FEF5F
:1041B0003FEF358724870BC0CE0101960E94462829
:1041C000019719F4898190E002C08FEF9FEF0F9063
:1041D000DF91CF9108950F931F93CF93DF931F9299
:1041E000CDB7DEB78C01FC018485958597FF0EC0A5
:1041F000CE0101960E944628019719F4298130E0EA
:1042000002C02FEF3FEFF80135872487F80184853E
:1042100095850F90DF91CF911F910F9108956111B6
:1042200002C060E201C061E20C944F16AF92BF92EF
:10423000CF92DF92EF92FF920F931F93CF93DF9372
:10424000EC015901680128853985621773070CF064
:104250005DC08A859B85481759070CF057C0FB0144
:10426000EA0DFB1D2E173F071CF45901A61AB70AC9
:104270009A012C0D3D1D821793071CF46C01C41A82
:10428000D50A8E8D823091F49701207E3770C70158
:10429000982F8827990F990F990F822B932BEF2C2A
:1042A000FF24E694E694E694E82AF92A0FEF040F37
:1042B0000C0D2FEF260F2A0DCE010E946C16EDA1DA
:1042C000FEA180819FA5982B9083EBA1FCA120816A
:1042D0009EA59095922390831C141D048CF4850157
:1042E000101611064CF48F2D0E942C168E2D0E9454
:1042F0002C1601501109F4CF81E0C81AD108ECCF77
:10430000EBA1FCA190818EA5892B8083DF91CF91B9
:104310001F910F91FF90EF90DF90CF90BF90AF90E3
:104320000895FC01848DDF01A80FB11DA35ABF4F72
:104330002C91848D90E001968F739927848FA689A4
:10434000B7892C93A089B1898C9180648C93938DCB
:10435000848D981306C00288F389E02D80818F7DBB
:1043600080830895CF93DF93282F30E0F901E15B3C
:10437000F84F8491F901E658F84FD491F901E955C5
:10438000F84FC491CC2391F081110E947220EC2F40
:10439000F0E0EE0FFF1FEF5BF84FA591B491EC91A9
:1043A000ED2381E090E021F480E002C080E090E025
:1043B000DF91CF9108951F93CF93DF93282F30E0A3
:1043C000F901E15BF84F8491F901E658F84FD49177
:1043D000F901E955F84FC491CC23C9F0162F81118A
:1043E0000E947220EC2FF0E0EE0FFF1FE756F84F0F
:1043F000A591B4918FB7F894111105C09C91ED2F40
:10440000E095E92302C0EC91ED2BEC938FBFDF9197
:10441000CF911F910895CF93DF9390E0FC01E65870
:10442000F84F2491FC01E955F84F8491882361F1FC
:1044300090E0880F991FFC01ED5CF84FC591D49175
:10444000FC01E756F84FA591B491611109C09FB7DF
:10445000F8948881209582238883EC912E230BC0C9
:10446000623061F49FB7F8943881822F809583235E
:104470008883EC912E2B2C939FBF06C08FB7F894A6
:10448000E8812E2B28838FBFDF91CF9108951F9352
:10449000CF93DF93182FEB0161E00E940B2220974E
:1044A00011F460E004C0CF3FD10539F461E0812F01
:1044B000DF91CF911F910C94DB21E12FF0E0E15BC4
:1044C000F84FE4914E2F50E0FA013197EF30F105AB
:1044D00008F06CC0EB59FF4F0C94112F84B5806825
:1044E00084BDC7BD68C084B5806284BDC8BD63C0DB
:1044F00080918000806880938000D0938900C09371
:10450000880059C080918000806280938000D093A1
:104510008B00C0938A004FC0809180008860809398
:104520008000D0938D00C0938C0045C08091900096
:10453000806880939000D0939900C09398003BC00E
:1045400080919000806280939000D0939B00C093F4
:104550009A0031C080919000886080939000D09341
:104560009D00C0939C0027C08091C000806880930C
:10457000C0008091C0008F7B8093C000C093CF00AB
:104580001AC08091C00080628093C000C093D000A8
:1045900012C08091C20088608093C2008091C200E6
:1045A0008B7F8093C200C093D20005C0C038D10574
:1045B0000CF07CCF76CFDF91CF911F9108953FB75C
:1045C000F8948091120390911303A0911403B09179
:1045D000150326B5A89B05C02F3F19F00196A11D14
:1045E000B11D3FBFBA2FA92F982F8827820F911D89
:1045F000A11DB11DBC01CD0142E0660F771F881FD0
:10460000991F4A95D1F708958F929F92AF92BF92CA
:10461000CF92DF92EF92FF926B017C010E94DF222A
:104620004B015C01C114D104E104F104F1F00E94DA
:10463000DF22DC01CB0188199909AA09BB09883E50
:104640009340A105B10570F321E0C21AD108E10839
:10465000F10888EE880E83E0981EA11CB11CC114DD
:10466000D104E104F10419F7DDCFFF90EF90DF9062
:10467000CF90BF90AF909F908F9008958F929F9210
:10468000AF92BF92CF92DF92EF92FF920F931F9360
:10469000CF93DF935C016B018A0180910B0188232A
:1046A00009F45EC080911703882309F459C08091F2
:1046B000970580FF05C08091E00082608093E00054
:1046C000E8018AEFF82E93E0E92E2FE3822E3AE3F9
:1046D000932E209709F43DC08FB7F894E092E9003B
:1046E0009091E80095FF06C09091F200282D291BBB
:1046F000922F01C090E08FBF91110AC0FA94FF2061
:1047000079F161E070E080E090E00E940423E1CF65
:10471000292F30E0C217D3070CF49C2F8FB7F894E1
:10472000E092E9002091E80025FF11C0292F30E038
:10473000C21BD30BF601915020F041914093F10040
:10474000FACFC20ED31E9091E80095FF13C08FBF21
:10475000C0CF5D9884E6809306031016110644F0DE
:1047600081E090E0F5019383828380E090E005C0D2
:10477000C80103C09092E800EACFDF91CF911F916A
:104780000F91FF90EF90DF90CF90BF90AF909F90F0
:104790008F9008952FB7F89460910E0370910F03D6
:1047A00080911003909111032FBF08951F920F92D3
:1047B0000FB60F9211242F933F938F939F93AF9334
:1047C000BF9380910E0390910F03A0911003B091BD
:1047D000110330910D0323E0230F2D3720F40196B0
:1047E000A11DB11D05C026E8230F0296A11DB11D14
:1047F00020930D0380930E0390930F03A093100357
:10480000B09311038091120390911303A0911403AC
:10481000B09115030196A11DB11D809312039093D1
:104820001303A0931403B0931503BF91AF919F910D
:104830008F913F912F910F900FBE0F901F90189561
:10484000CF93CFB7F89480910C03811116C061E02B
:1048500081E10E94DB2161E081E10E940B228CB5A5
:1048600080618CBD8CB580648CBD61E08FE00E945E
:104870000B2261E080E10E940B2280910C038F5F8C
:1048800080930C03CFBFCF9108952F923F924F9208
:104890005F926F927F928F929F92AF92BF92CF92D0
:1048A000DF92EF92FF920F931F93CF93DF93CDB7D9
:1048B000DEB72D970FB6F894DEBF0FBECDBF8C2CA0
:1048C000912CFB0136E0C39EE00DF11D11241E1654
:1048D0001F060CF088C0F40133E0EE0FFF1F3A957D
:1048E000E1F7E40FF51F1E161F060CF07CC0CF8207
:1048F000FE82ED821C830B831A015C0145E0249F3C
:10490000900111247D876C873B011A82C901861BA7
:10491000970B99878887D1011896BB87AA87BA8198
:10492000B53049F0E885F985E60DF71DE85CFD4FE7
:104930002491298301C0198221016101398130FF4D
:1049400012C0D501ED91FC91BF81B13031F40480EA
:10495000F581E02D2B813C8118C00684F785E02D80
:10496000EB80FC801CC0ED81FE812B813C81E21735
:10497000F307E1F0D501ED91FC91BF81B13051F425
:104980000480F581E02D2D813E81A201B301C50196
:1049900009950CC00684F785E02DED80FE8084012A
:1049A0009401A6016C857D85C5010995E981E6958F
:1049B000E983FFEF4F1A5F0AC80CD91C2A853B8593
:1049C0004216530609F0BACF3A813F5F3A834FEF60
:1049D000641A740A8C859D85880D991D9D878C8726
:1049E000363009F09CCF2D960FB6F894DEBF0FBE7F
:1049F000CDBFDF91CF911F910F91FF90EF90DF908E
:104A0000CF90BF90AF909F908F907F906F905F906E
:104A10004F903F902F900895AF92BF92CF92DF9228
:104A2000EF92FF920F931F93CF93DF935C016B0183
:104A3000E901411101C041E040930705B092000532
:104A4000A092FF04D0920205C092010581E08093FC
:104A50000C0510930B0500930A05109304050093B1
:104A6000030510930605009305050AE010E0E091A8
:104A7000F304F091F4040190F081E02D60911005B1
:104A800083EF94E009950150110989F7B092000570
:104A9000A092FF04D0920205C092010581E08093AC
:104AA0000C05D0930B05C0930A05D0930405C09361
:104AB0000305D0930605C0930505B70183EF94E085
:104AC000DF91CF911F910F91FF90EF90DF90CF90EA
:104AD000BF90AF900C94C71F382F20918203909104
:104AE0008103213208F049C080915E038111FCCF1F
:104AF00042E040935E0330935D033FEF30935C03ED
:104B000010925B0320935A03A1E6B3E04AE353E01B
:104B1000FA013E2F341B321718F43D913193F9CF2F
:104B20001092390320913903990F922B90933903F6
:104B300090913803913061F41092380390913903C9
:104B40009093BB009091BC0093FDF8CF95EC01C011
:104B500095EE9093BC0090915E039230E1F39091BA
:104B60005C039F3F79F080915C03803241F080913B
:104B70005C03803331F084E005C081E003C082E053
:104B800001C083E0109260031092820310925F03D1
:104B90000895CF93DF93EB0190916B0521E0209373
:104BA0005F03909381031092600310928203682F39
:104BB00080E794E00E940D29813061F441E050E0EB
:104BC000BE0180E794E00E94DD2881E0DF91CF9173
:104BD0000C946C258FEFDF91CF9108950F931F9365
:104BE000CF93DF93C82FD62F0FEE14E060E0F801CB
:104BF00080810E94DB218C2F880F8E770E942C16DB
:104C00008D2F0E942C1661E0F8018081DF91CF91F9
:104C10001F910F910C94DB210F931F93CF93C82FFB
:104C20000FEE14E060E0F80180810E94DB218C2F00
:104C3000880F8E7780680E942C1680E00E942C16C8
:104C4000C82F61E0F80180810E94DB218C2FCF9179
:104C50001F910F9108951F93CF93DF931F92CDB7AC
:104C6000DEB7182F69830E940C266981609568233E
:104C7000812F0F90DF91CF911F910C94EE251F9300
:104C8000CF93DF931F92CDB7DEB7182F69830E94B1
:104C90000C266981682B812F0F90DF91CF911F9196
:104CA0000C94EE25CF92DF92EF92FF920F931F9319
:104CB000CF93DF93EC012196FC011491112309F4A9
:104CC00037C0FE01649183EF94E00E944F166E019D
:104CD000F2E0CF0ED11CFE013196C4910C2F00786A
:104CE000CF777601DC2FD15050F0F701649183EF3C
:104CF00094E00E943316FFEFEF1AFF0AF4CFC601CB
:104D00008C0F911DEC01002389F07C019FEFE91AC3
:104D1000F90AFE01649170E06F3F710511F464EFD0
:104D200071E080E090E00E940423E7011150C6CFBB
:104D3000DF91CF911F910F91FF90EF90DF90CF9077
:104D400008954F925F926F927F928F929F92AF924F
:104D5000BF92DF92EF92FF920F931F93CF93DF9357
:104D60001F92CDB7DEB7E82E4B01A42E29018CE0AF
:104D7000E81631F0EEE0EE1641F0D12CF12C09C02E
:104D800070E3D72EE7E7FE2E04C050E1D52E62E196
:104D9000F62E6F2D606882E00E94EE2560E884E0C8
:104DA0000E942B2660E88AE00E943F2660E081E0B6
:104DB0000E94EE253401B12CC301881999098A1586
:104DC0009B0538F4F30161913F0189E00E94EE25D3
:104DD000F3CF6E2D81E00E94EE25FCE0EF1204C0BF
:104DE00060E88DE00E943F2640EDA42E47E0B42EFF
:104DF0008D2D8160D82E84E00E940C26982EE1E053
:104E0000AE1AB10811F08D21B1F360E88DE00E9477
:104E10002B26AB2819F432E0F32E43C086E00E9423
:104E20000C268B71C1F79F2D9170F92EF920FCE0B3
:104E3000EF1237C08AE00E940C26982F8CE09983ED
:104E40000E940C2687709981492F50E0882351F0E9
:104E50004150510923E0440F551F2A95E1F7480FAF
:104E6000511D05C083E0440F551F8A95E1F7F801F5
:104E700051834083992321F0913118F090E101C0D2
:104E800091E05201092F10E0C5018419950980179E
:104E9000910738F489E00E940C26F50181935F01A7
:104EA000F3CF8F2D0F90DF91CF911F910F91FF9036
:104EB000EF90DF90BF90AF909F908F907F906F901A
:104EC0005F904F900895AF92BF92DF92EF92FF9262
:104ED0000F931F93CF93DF931F92CDB7DEB7F82EBA
:104EE000E62E8A0164E085E099830E942B2660E823
:104EF0008AE00E943F26DF2CAF2C9981B92E8A2DA3
:104F00008D198E1538F4F50161915F0189E00E94D9
:104F1000EE25F5CF63E081E00E94EE25FF24FA94B0
:104F200085E00E940C26FA94FF2011F082FFF8CF52
:104F300082E20E940C26F801808381E20E940C2606
:104F4000F80181830F90DF91CF911F910F91FF9016
:104F5000EF90DF90BF90AF90089562E080912505BB
:104F60000E940B22809125050E94B22121E0892B0D
:104F700009F420E0822F089590915E039111FCCFF7
:104F800091E090935E0390935D032FEF20935C0379
:104F900010925B03260F20935A039093390390914C
:104FA0003903880F892B809339038091380381302E
:104FB00061F410923803809139038093BB00809193
:104FC000BC0083FDF8CF85EC01C085EE8093BC006A
:104FD00080915E038130E1F380915B03861710F4CA
:104FE00060915B03AAE3B3E028E133E0F9018E2F7F
:104FF000821B861718F48D918193F9CF862F08951F
:1050000060E0809170050E940B22809170050E94E3
:10501000B22121E0892B09F420E0822F0895CF935B
:10502000DF9360E0809126050E940B22E091260527
:10503000E23108F0E251F0E0E259F84FE49180915A
:105040007B00E3FB992790F9C92F90E0D92F95E0D9
:10505000CC0FDD1F9A95E1F78F7DC82BC0937B00A5
:10506000E770E064E0937C0080917A008064809334
:105070007A0080917A0086FDFCCF809178002091A3
:10508000790090E0922BDF91CF910895FC018091FF
:105090001703811103C08FEF9FEF08959FB7F89416
:1050A00082E08093E9002091F20030E012161306AE
:1050B00014F421E030E02115310559F0289884E6F8
:1050C000809316038091F10080838091F200882301
:1050D00019F09FBFC90108958BE68093E800F9CFCE
:1050E00080918E0581110DC082E080938A0584E055
:1050F00080938B0510928D0510928C0581E0809332
:105100008E058AE895E008950E94D534EF92FF92CB
:105110000F931F93CF93DF93EC017B018A01BA01B8
:105120000E94E61C2881398181110DC021153105AD
:1051300019F0C9010E947333198218821D821C82E2
:105140001B821A8206C01D830C83B701C9010E940D
:10515000E334CE01DF91CF911F910F91FF90EF903B
:1051600008950895E0919A0580919905E81730F423
:10517000F0E0E85EFC4F808190E008958FEF9FEFB4
:10518000089590919A0580919905981750F4E92F08
:10519000F0E0E85EFC4F208130E09F5F90939A053D
:1051A00002C02FEF3FEFC90108958091990590E06B
:1051B00020919A05821B91090895CF92DF92EF9278
:1051C000FF920F931F93CF93DF937C01262F972F8E
:1051D0008A0180915F03882391F0C62FD72F6E013B
:1051E000C40ED51ECC15DD0571F06991D701ED9186
:1051F000FC910190F081E02DC7010995F3CF642F58
:10520000822F0E94211BC801DF91CF911F910F9126
:10521000FF90EF90DF90CF900895CF93DF931F9290
:10522000CDB7DEB7698320915F032223D1F02091AF
:105230008203203240F021E030E0FC0133832283FE
:1052400080E090E015C080916003E82FF0E0EF5916
:10525000FC4F998190838F5F8093600380938203DA
:1052600005C061E0CE0101960E94211B81E090E023
:105270000F90DF91CF91089510925E0381E08093AB
:105280005D031092380361E082E00E94DB2161E05F
:1052900083E00E94DB21E9EBF0E080818E7F808358
:1052A00080818D7F808388E48093B80085E480933B
:1052B000BC000895E82FF0E0E556FA4F9081108287
:1052C000ADEEB5E09C938F5FE82FF0E0E556FA4F26
:1052D0008081108211968C938091ED059091EE055E
:1052E0000895CF93C82F682F80E294E00E94372062
:1052F0006C2F83E893E0CF910C947D1CCF92DF92CA
:10530000FF920F931F93CF93DF931F92CDB7DEB71A
:10531000162FF72E082F82E099830E94712988EEBC
:10532000C82E81E0D82E412F5F2D602F9981792FD3
:10533000F6014083518362837383812F0E94712918
:10534000F60181810E947129F60182810E947129F2
:10535000F60183810F90DF91CF911F910F91FF9004
:10536000DF90CF900C947129CF93C82F81E00E94D9
:1053700071298C2FCF910C9471298FEF0E94712984
:1053800085E50E94712980E294E00E94BC1F83E8B9
:1053900093E00C94BC1FCF92DF92EF92FF920F9399
:1053A0001F93E82FF92F05C0015011092109310978
:1053B00061F1908196239417B9F305C0015011094A
:1053C0002109310911F1908196239413F7CFC12C53
:1053D000D12CE12CF12C0AC08FEFC81AD80AE80AA8
:1053E000F80A0C151D052E053F0579F080818623EE
:1053F000841791F36C2D7D2D8E2D9F2D1F910F9174
:10540000FF90EF90DF90CF90089560E070E080E033
:1054100090E01F910F91FF90EF90DF90CF90089553
:10542000109286031092850388EE93E0A0E0B0E02E
:105430008093870390938803A0938903B0938A0392
:1054400021E531E030938403209383032DEC30E099
:105450003093900320938F032CEC30E03093920331
:105460002093910328EC30E030939403209393032E
:1054700029EC30E030939603209395032AEC30E03A
:1054800030939803209397032EEC30E030939A03E7
:105490002093990310929C0310929D0310929E03F7
:1054A00010929F03109223041092220480932404EC
:1054B00090932504A0932604B093270421E631E0BD
:1054C00030932104209320042FEF3FEF30932D04DD
:1054D00020932C041092730410927204809374042D
:1054E00090937504A0937604B093770481E791E0DC
:1054F000909371048093700460E081E895E00E94CD
:10550000F5178091A1048C30A0F491E0980F90934E
:10551000A1048093850590E0FC01EE0FFF1F8E0F24
:105520009F1FFC01E358FB4F88EB9BE09283818334
:1055300003C08FEF8093850560E08CE795E00E94C3
:10554000F51788E48093800560E080E795E00E948D
:10555000F5171092770510926C0510926D05109258
:105560006E058CE080937C0460E089E295E00E9407
:10557000F51788E680936B05109225051092260595
:10558000109227051092F6041092F50482E890E03C
:105590009093F8048093F70420EA30E03093FA0403
:1055A0002093F9044AED40931005109208051092DB
:1055B00000051092FF04109202051092010541E0CF
:1055C000409307056FEF7FEF709306056093050525
:1055D00070930405609303054093090541E851E089
:1055E0005093F4044093F3043093FC042093FB04A1
:1055F0009093FE048093FD0462E082EA94E00E94AE
:10560000F51780E1EDE1F1E0ABEBB4E001900D9234
:105610008A95E1F71092CB041092CC041092CD043D
:1056200080E1EDE2F1E0AFECB4E001900D928A95FB
:10563000E1F780E1EDE3F1E0AFEDB4E001900D9230
:105640008A95E1F78091A304282F30E03093F0048D
:105650002093EF0461E00E940B2260E08091EF0450
:105660000C94DB21CF93DF93CDB7DEB729970FB62C
:10567000F894DEBF0FBECDBF789484B5826084BD40
:1056800084B5816084BD85B5826085BD85B5816046
:1056900085BD80916E00816080936E0010928100C4
:1056A000809181008260809381008091810081607F
:1056B0008093810080918000816080938000809140
:1056C000910082608093910080919100816080932D
:1056D0009100809190008160809390008091C10042
:1056E00084608093C1008091C10082608093C1007A
:1056F0008091C10081608093C1008091C30081606E
:105700008093C3008091C00082608093C00080912C
:10571000C20081608093C20080917A00846080938F
:105720007A0080917A00826080937A0080917A007A
:10573000816080937A0080917A00806880937A00FB
:105740001092170310929805109297058091D70038
:1057500081608093D70080EA8093D80089B580610A
:1057600089BD89B5826089BD09B400FEFDCF61E0C5
:1057700070E080E090E00E9404238091D8008F7C4C
:1057800080618093D8008091E000807F8093E0006A
:105790008091E1008E7E8093E1008DE08093E200B5
:1057A000559A209AEEEFFFE7859194918B3F9C4D9F
:1057B00019F481E0809396058FEF9FEF90932D046D
:1057C00080932C04E0919303F091940382E0808312
:1057D000E0918F03F09190031082E0919103F0919A
:1057E000920380E1808310929B03E0919703F091F4
:1057F000980386E08083E0919503F0919603808181
:1058000080618083E0919503F091960380818860A8
:105810008083E0919503F091960380818068808376
:10582000E0919503F091960380818F7D80830E94A3
:10583000202488E080931A058DE080931B05109248
:1058400024051092230561E00E940B2261E0809103
:105850001A050E940B2280911A0590E0FC01E9557F
:10586000F84FE491F0E0EE0FFF1FE756F84F259157
:1058700034913093170520931605FC01E658F84F34
:10588000E491E093210580911B0590E0FC01E9552E
:10589000F84FE491F0E0EE0FFF1FE756F84F259127
:1058A00034913093190520931805FC01E658F84F00
:1058B000E491E093220561E080911E050E940B2295
:1058C00061E080911D050E940B2280911E0590E0F1
:1058D000FC01E955F84FE491F0E0EE0FFF1FE756A9
:1058E000F84FA591B491B0931505A0931405FC0150
:1058F000E658F84F84918093200520911D0530E0F3
:10590000F901E955F84FE491F0E0EE0FFF1FE7567B
:10591000F84F459154915093130540931205F901A6
:10592000E658F84FE491E0931F059C91E82FE0952D
:10593000E923EC93E0911205F09113059081809199
:105940001F05809589238083E0911605F091170546
:105950009081809121058095892380838EEF97E047
:105960000E94522681EF97E00E94522686EC97E033
:105970000E94522611E01093110566E383EF94E034
:105980000E944F161093080568EA83EF94E00E9486
:10599000331680EA90E09093FC048093FB0482E845
:1059A00090E09093FE048093FD040E9420246FE019
:1059B00081E00E94EE256DE88AE20E94EE256EE30A
:1059C0008BE20E94EE256EE18DE20E94EE2560E002
:1059D0008CE20E94EE2560E485E10E94EE256DE3F5
:1059E00081E10E94EE2584E10E940C26837021F45F
:1059F00063E084E10E943F2680E090E0A3E8B2E407
:105A000080932F0590933005A0933105B093320514
:105A10001092330510923405109235051092360518
:105A200010923705109238051092390510923A05F8
:105A300010923B0510923C0510923D0510923E05D8
:105A400010923F05109240051092410510924205B8
:105A50001092430510924405109245051092460598
:105A600010924705109248051092490510924A0578
:105A700010924C0510924B0510924E0510924D0558
:105A80001092500510924F05109251051092520538
:105A90001092530510925405109255051092560518
:105AA00010925705109258051092590510925A05F8
:105AB00010925B0510925C0510929A051092990560
:105AC00010926003109282030E943C2960E273E00E
:105AD00080E090E00E9404231986BE01675F7F4F3B
